:100000000C944D000C946C000C946C000C946C00DF
:100010000C946C000C946C000C946C000C946C00B0
:100020000C946C000C946C000C946C000C946C00A0
:100030000C946C000C94B1010C946C000C946C004A
:100040000C946C000C946C000C946C000C946C0080
:100050000C946C000C946C000C946C000C946C0070
:100060000C946C000C946C000C946C000C946C0060
:100070000C946C000C946C000C946C000C946C0050
:100080000C946C000C946C000C946C0084028B0239
:10009000B902F802A702E602180311241FBECFEF2F
:1000A000D0E4DEBFCDBF11E0A0E0B1E0E6EBF7E0C9
:1000B00000E00BBF02C007900D92AC31B107D9F739
:1000C00021E0ACE1B1E001C01D92A732B207E1F737
:1000D0000E9464030C94D9030C940000CF93DF9327
:1000E000CDB7DEB781E00E949300DF91CF910895F4
:1000F000CF93DF93CDB7DEB784E690E00E94330163
:1001000088E30E94930086E00E9493008FE00E94A3
:10011000930081E00E9493008AE090E00E94330106
:10012000DF91CF910895CF93DF931F92CDB7DEB7C4
:1001300089838BE290E02BE230E0F90120812F7B74
:10014000FC01208388E290E02981FC0120838BE27E
:1001500090E02BE230E0F90120812068FC0120834F
:1001600000008BE290E02BE230E0F90120812F7754
:10017000FC01208382E090E00E9433010F90DF9128
:10018000CF910895CF93DF931F92CDB7DEB78983C8
:100190008BE290E02BE230E0F90120812064FC0149
:1001A000208388E290E02981FC0120838BE290E0AB
:1001B0002BE230E0F90120812068FC01208300005F
:1001C0008BE290E02BE230E0F90120812F77FC01F7
:1001D000208381E090E00E9433010F90DF91CF9166
:1001E0000895CF93DF9300D000D0CDB7DEB78A83D8
:1001F0007C836B830E946E008A81898311C0898110
:1002000091E0980F99830E941D018B819C819C0134
:100210002F5F3F4F3C832B83FC0180810E94C200F3
:100220008B819C81FC018081882349F70F900F907E
:100230000F900F90DF91CF910895CF93DF931F928E
:10024000CDB7DEB789838981813128F489818158CE
:100250000E94930004C0898181550E9493000F90F1
:10026000DF91CF910895CF93DF9300D000D000D0DD
:10027000CDB7DEB79E838D831A82198214C01C828B
:100280001B8206C000008B819C8101969C838B831E
:100290008B819C81873023E09207A4F389819A8126
:1002A00001969A83898329813A818D819E812817BD
:1002B00039072CF326960FB6F894DEBF0FBECDBFDC
:1002C000DF91CF910895CF93DF93CDB7DEB781E86B
:1002D00090E02BE0FC01208388E890E02DE730E0FF
:1002E000FC01318320838FE690E022E0FC01208333
:1002F00084E890E0FC0111821082809100019091CD
:100300000101A0910201B091030180931D0190931E
:100310001E01A0931F01B09320018FE590E02FE50F
:1003200030E0F90120812068FC0120830000DF918A
:10033000CF910895CF93DF93CDB7DEB781E890E0FA
:10034000FC0110820000DF91CF910895CF93DF93DD
:10035000CDB7DEB781E080931C010000DF91CF9123
:1003600008951F920F9200905F000F921124009049
:100370005B000F922F933F934F935F936F937F9305
:100380008F939F93AF93BF93EF93FF93CF93DF939D
:10039000CDB7DEB780911D0190911E01A0911F0184
:1003A000B09120010197A109B10980931D0190939B
:1003B0001E01A0931F01B093200180911D01909117
:1003C0001E01A0911F01B0912001892B8A2B8B2B3C
:1003D00091F40E94A6018091000190910101A091E9
:1003E0000201B091030180931D0190931E01A0931F
:1003F0001F01B09320010000DF91CF91FF91EF9199
:10040000BF91AF919F918F917F916F915F914F912C
:100410003F912F910F9000925B000F9000925F0030
:100420000F901F901895CF93DF9300D000D0CDB7D9
:10043000DEB769837A838B839C8389819A81AB81C0
:10044000BC818093000190930101A0930201B093BD
:1004500003018091000190910101A0910201B091EE
:10046000030180931D0190931E01A0931F01B0937F
:10047000200100000F900F900F900F90DF91CF910F
:100480000895CF93DF9300D01F92CDB7DEB7898355
:100490007B836A8389818A3031F48A819B81BC01A4
:1004A0008DE00E94410280EC90E0FC018081882F69
:1004B00090E080729927892BB1F386EC90E0298136
:1004C000FC01208380E090E00F900F900F90DF916F
:1004D000CF910895CF93DF93CDB7DEB780912501FB
:1004E00090912601CC01A0E0B0E040E050E026E091
:1004F00030E0841B950B2817390708F4B0C08A5BDD
:100500009F4FFC010C94D00381E090E09093260172
:1005100080932501A4C080912101882389F084E083
:1005200090E09093260180932501809123018823F8
:1005300009F490C0809123018150809323018AC0E7
:1005400082E090E0909326018093250183C0809102
:100550002101882339F081E090E090932601809377
:1005600025017DC084E090E09093260180932501D1
:1005700076C080912101882389F085E090E09093F6
:1005800026018093250180912301893008F064C001
:10059000809123018F5F809323015EC080912401AD
:1005A0008170882361F481E090E09093260180932C
:1005B0002501809124018F5F809324014DC083E049
:1005C00090E0909326018093250146C080912101FF
:1005D000882339F081E090E09093260180932501F3
:1005E0003EC085E090E0909326018093250137C0BE
:1005F00080912101882381F086E090E0909326018C
:100600008093250180912301882341F1809123016A
:1006100081508093230122C082E090E090932601D4
:1006200080932501809124018F5F8093240116C05F
:1006300080912101882339F081E090E09093260198
:10064000809325010CC086E090E090932601809372
:10065000250105C0000003C0000001C0000080911A
:100660002501909126018330910511F18430910587
:1006700030F48130910561F0029791F021C085300E
:10068000910591F08530910538F00697A9F018C0D2
:1006900081E08093220114C081E08093220110C088
:1006A00082E0809322010CC082E08093220108C086
:1006B00084E08093220104C084E080932201000042
:1006C0000000DF91CF910895CF93DF93CDB7DEB7D0
:1006D00081E290E0FC01108282E290E02FEFFC01C9
:1006E000208384E290E02FEFFC01208385E290E0FC
:1006F000FC01108287E290E02FEFFC01208388E26A
:1007000090E0FC0110828AE290E02FEFFC01208350
:100710008BE290E0FC0110826CE271E080E090E0FE
:100720000E9413020E94630110922601109225017B
:100730000E9478000E946E0085E08093230181E092
:100740000E941D0180912301893031F462E171E042
:1007500081E00E94F10005C080912301805D0E942C
:10076000C20080E290E0FC018081882F90E08170DF
:10077000992721E0892B09F020E0822F8093210125
:100780000E946A02000080911C018823E1F310920C
:100790001C0185E290E020912201FC012083CFCF53
:1007A000EE0FFF1F0024001C0BBE0790F691E02DFA
:0607B0000994F894FFCF4C
:1007B60001000000000000020000000041020000ED
:0C07C600000057696E6E65722121000072
:00000001FF
