:100000000C944D000C946C000C946C000C946C00DF
:100010000C946C000C946C000C946C000C946C00B0
:100020000C946C000C946C000C946C000C946C00A0
:100030000C946C000C94AA000C946C000C946C0052
:100040000C946C000C946C000C946C000C946C0080
:100050000C946C000C946C000C946C000C946C0070
:100060000C946C000C946C000C946C000C946C0060
:100070000C946C000C946C000C946C000C946C0050
:100080000C946C000C946C000C946C0016011D0117
:10009000410173012F0161018A0111241FBECFEFBD
:1000A000D0E4DEBFCDBF11E0A0E0B1E0ECEEF3E0C4
:1000B00000E00BBF02C007900D92A231B107D9F743
:1000C00021E0A2E1B1E001C01D92AC31B207E1F73D
:1000D0000E94C8010C94F4010C940000CF93C82F27
:1000E0008A3019F48DE00E946E008091C00085FF77
:1000F000FCCFC093C60080E090E0CF9108958BE0E4
:10010000809381008DE790E0909389008093880030
:1001100082E080936F00109285001092840080919D
:100120000E0190910F01A0911001B09111018093E7
:10013000150190931601A0931701B09318018FB782
:1001400080688FBF089510928100089581E08093A8
:10015000190108951F920F920FB60F9211240BB63A
:100160000F922F933F934F935F936F937F938F9350
:100170009F93AF93BF93EF93FF938091150190915D
:100180001601A0911701B09118010197A109B109B9
:100190008093150190931601A0931701B093180155
:1001A000892B8A2B8B2B91F40E94A60080910E0143
:1001B00090910F01A0911001B09111018093150150
:1001C00090931601A0931701B0931801FF91EF913E
:1001D000BF91AF919F918F917F916F915F914F915F
:1001E0003F912F910F900BBE0F900FBE0F901F905D
:1001F000189560930E0170930F01809310019093F6
:10020000110160931501709316018093170190936B
:1002100018010895E0911A01F0911B01E730F105F2
:1002200008F089C0EA5BFF4F0C94EB0181E090E09D
:1002300090931B0180931A017EC080911401882342
:1002400039F084E090E090931B0180931A0173C011
:1002500082E090E090931B0180931A016CC0809122
:100260001401882339F081E090E090931B01809382
:100270001A0161C084E090E090931B0180931A0101
:100280005AC080911401882339F085E090E0909362
:100290001B0180931A014FC08091120180FD0AC09A
:1002A00021E030E030931B0120931A018F5F80938F
:1002B000120141C083E090E090931B0180931A01EA
:1002C0003AC080911401882339F081E090E0909346
:1002D0001B0180931A012FC085E090E090931B01D1
:1002E00080931A0128C080911401882339F086E098
:1002F00090E090931B0180931A011DC082E090E072
:1003000090931B0180931A01809112018F5F80935B
:10031000120111C080911401882339F081E090E02E
:1003200090931B0180931A0106C086E090E09093A1
:100330001B0180931A0180911A0190911B01833057
:100340009105F1F030F48130910551F0029781F080
:1003500008958530910581F038F00697A9F0089549
:1003600081E080931301089581E080931301089543
:1003700082E080931301089582E080931301089531
:1003800084E080931301089584E08093130108951D
:1003900011B88FEF82B984B915B86CE271E080E0D2
:1003A00090E00E94F9000E947F0010921B011092C1
:1003B0001A0190B181E089278170809314010E9415
:1003C0000A01809119018823E1F3109219018091AB
:1003D000130185B9EECFEE0FFF1F0024001C0BBEEA
:0C03E0000790F691E02D0994F894FFCFEF
:1003EC0000000002000000006E0000000000010090
:0203FC000000FF
:00000001FF
