:100000000C9446000C9465000C9465000C946500FB
:100010000C9465000C9465000C9465000C946500CC
:100020000C9465000C9465000C9465000C946500BC
:100030000C9465000C94A3000C9465000C9465006E
:100040000C9465000C9465000C9465000C9465009C
:100050000C9465000C9465000C9465000C9465008C
:100060000C9465000C9465000C9465000C9465007C
:100070000C9465000C9465000C9465000C9465006C
:100080000C9465000C9465000C94650011241FBE4F
:10009000CFEFD0E4DEBFCDBF11E0A0E0B1E0E0ECF7
:1000A000F3E000E00BBF02C007900D92A231B10750
:1000B000D9F721E0A2E1B1E001C01D92AD31B20754
:1000C000E1F70E94BE010C94DE010C940000CF9376
:1000D000C82F8A3019F48DE00E9467008091C0001B
:1000E00085FFFCCFC093C60080E090E0CF910895DB
:1000F0008BE0809381008DE790E09093890080935E
:10010000880082E080936F00109285001092840036
:1001100080910E0190910F01A0911001B0911101F9
:100120008093130190931401A0931501B0931601CD
:100130008FB780688FBF089510928100089581E085
:100140008093170108951F920F920FB60F921124FA
:100150000BB60F922F933F934F935F936F937F93C1
:100160008F939F93AF93BF93EF93FF93809113016E
:1001700090911401A0911501B09116010197A10968
:10018000B1098093130190931401A0931501B093CA
:100190001601892B8A2B8B2B91F40E949F00809152
:1001A0000E0190910F01A0911001B0911101809367
:1001B000130190931401A0931501B0931601FF91C0
:1001C000EF91BF91AF919F918F917F916F915F91CF
:1001D0004F913F912F910F900BBE0F900FBE0F903C
:1001E0001F90189560930E0170930F01809310017A
:1001F0009093110160931301709314018093150182
:1002000090931601089590B181E0892781708093C1
:10021000180190B19095927090931C012091190152
:1002200030911A012230310509F441C038F421150A
:10023000310571F02130310591F076C0243031055F
:1002400009F443C0D8F12530310509F450C06CC021
:1002500081E090E090931A018093190165C08111AB
:1002600009C0992339F083E090E090931A018093BC
:1002700019015AC0882349F0911107C082E090E02B
:1002800090931A01809319014FC0882349F0992354
:1002900039F084E090E090931A018093190144C0F2
:1002A00081E090E090931A01809319013DC085E0B0
:1002B00090E090931A018093190136C085E090E098
:1002C00090931A01809319012FC0882349F0992334
:1002D00039F084E090E090931A018093190124C0D2
:1002E00081E090E090931A01809319011DC088234A
:1002F000A9F0911113C085E090E090931A018093CA
:100300001901809112018A3078F081E090E0909399
:100310001A01809319011092120106C081E090E049
:1003200090931A01809319018091190190911A01FB
:100330008330910591F018F4029739F008958430D4
:10034000910599F00597A1F0089580911B018930DE
:10035000A0F48F5F80931B01089580911B01882377
:1003600061F0815080931B01089510921B01089544
:10037000809112018F5F80931201089511B88FEF61
:1003800082B984B915B864E670E080E090E00E941C
:10039000F2000E94780010921A011092190187E071
:1003A00080931B010E940301809117018823E1F3D0
:1003B0001092170180911B0185B9F4CFF894FFCFFB
:1003C00000000002000000006700000000000100C3
:0203D00000002B
:00000001FF
