:100000000C9446000C9465000C9465000C946500FB
:100010000C9465000C9465000C9465000C946500CC
:100020000C9465000C9465000C9465000C946500BC
:100030000C9465000C94A3000C9465000C9465006E
:100040000C9465000C9465000C9465000C9465009C
:100050000C9465000C9465000C9465000C9465008C
:100060000C9465000C9465000C9465000C9465007C
:100070000C9465000C9465000C9465000C9465006C
:100080000C9465000C9465000C94650011241FBE4F
:10009000CFEFD0E4DEBFCDBF11E0A0E0B1E0E2ECF5
:1000A000F2E000E00BBF02C007900D92A231B10751
:1000B000D9F721E0A2E1B1E001C01D92AA31B20757
:1000C000E1F70E9444010C945F010C940000CF936F
:1000D000C82F8A3019F48DE00E9467008091C0001B
:1000E00085FFFCCFC093C60080E090E0CF910895DB
:1000F0008BE0809381008DE790E09093890080935E
:10010000880082E080936F00109285001092840036
:1001100080910E0190910F01A0911001B0911101F9
:100120008093130190931401A0931501B0931601CD
:100130008FB780688FBF089510928100089581E085
:100140008093170108951F920F920FB60F921124FA
:100150000BB60F922F933F934F935F936F937F93C1
:100160008F939F93AF93BF93EF93FF93809113016E
:1001700090911401A0911501B09116010197A10968
:10018000B1098093130190931401A0931501B093CA
:100190001601892B8A2B8B2B91F40E949F00809152
:1001A0000E0190910F01A0911001B0911101809367
:1001B000130190931401A0931501B0931601FF91C0
:1001C000EF91BF91AF919F918F917F916F915F91CF
:1001D0004F913F912F910F900BBE0F900FBE0F903C
:1001E0001F90189560930E0170930F01809310017A
:1001F0009093110160931301709314018093150182
:100200009093160108958091180190911901813001
:10021000910571F030F08230910589F00397B1F0CB
:100220001BC081E090E0909319018093180114C0E5
:1002300082E090E090931901809318010DC083E053
:1002400090E0909319018093180106C081E090E03E
:1002500090931901809318018091180190911901D0
:100260008230910549F08330910551F0019759F49E
:1002700081E080931201089582E080931201089535
:1002800084E08093120108958FEF84B915B868EE69
:1002900073E080E090E00E94F2000E9478001092EB
:1002A0001901109218010E940301809117018823FF
:1002B000E1F3109217018091120185B9F4CFF894FF
:0202C000FFCF6E
:1002C20000000002000000006700000000000100C2
:0202D20000002A
:00000001FF
