:100000000C9446000C9465000C9465000C946500FB
:100010000C9465000C9465000C9465000C946500CC
:100020000C9465000C9465000C9465000C946500BC
:100030000C9465000C94B5000C9465000C9465005C
:100040000C9465000C9465000C9465000C9465009C
:100050000C9465000C9465000C9465000C9465008C
:100060000C9465000C9465000C9465000C9465007C
:100070000C9465000C9465000C9465000C9465006C
:100080000C9465000C9465000C94650011241FBE4F
:10009000CFEFD0E4DEBFCDBF11E0A0E0B1E0EEEFE6
:1000A000F7E000E00BBF02C007900D92A631B10748
:1000B000D9F721E0A6E1B1E001C01D92AA32B20752
:1000C000E1F70E9428030C94FD030C940000CF93E9
:1000D000DF93CDB7DEB781E890E02BE0FC01208311
:1000E00088E890E02DE730E0FC01318320838FE643
:1000F00090E022E0FC01208384E890E0FC01118282
:1001000010828091000190910101A0910201B091B3
:1001100003018093170190931801A0931901B093E4
:100120001A018FE590E02FE530E0F9012081206889
:10013000FC0120830000DF91CF910895CF93DF93DE
:10014000CDB7DEB781E890E0FC0110820000DF91BE
:10015000CF910895CF93DF93CDB7DEB781E0809341
:1001600016010000DF91CF9108951F920F92009029
:100170005F000F92112400905B000F922F933F932A
:100180004F935F936F937F938F939F93AF93BF939F
:10019000EF93FF93CF93DF93CDB7DEB78091170135
:1001A00090911801A0911901B0911A010197A1092C
:1001B000B1098093170190931801A0931901B0938E
:1001C0001A018091170190911801A0911901B09125
:1001D0001A01892B8A2B8B2B91F40E94AA00809103
:1001E000000190910101A0910201B091030180935F
:1001F000170190931801A0931901B0931A01000000
:10020000DF91CF91FF91EF91BF91AF919F918F912E
:100210007F916F915F914F913F912F910F9000923D
:100220005B000F9000925F000F901F901895CF9386
:10023000DF9300D000D0CDB7DEB769837A838B839C
:100240009C8389819A81AB81BC81809300019093CA
:100250000101A0930201B0930301809100019091EC
:100260000101A0910201B0910301809317019093C5
:100270001801A0931901B0931A0100000F900F907C
:100280000F900F90DF91CF910895CF93DF9300D01F
:100290001F92CDB7DEB789837B836A8389818A30D9
:1002A00031F48A819B81BC018DE00E94450180EC84
:1002B00090E0FC018081882F90E080729927892B43
:1002C000B1F386EC90E02981FC01208380E090E08E
:1002D0000F900F900F90DF91CF910895CF93DF9300
:1002E000CDB7DEB780912801909129018130910529
:1002F00081F08130910530F08230910589F00397CB
:10030000B1F01CC081E090E0909329018093280116
:1003100015C082E090E090932901809328010EC0DF
:1003200083E090E0909329018093280107C081E049
:1003300090E090932901809328010000809128018A
:10034000909129018130910549F08130910590F01B
:100350008230910539F0039749F00DC081E0809318
:100360001B0109C082E080931B0105C084E08093DB
:100370001B0101C000000000DF91CF910895CF93D1
:10038000DF93CDB7DEB780912201909123010097D2
:1003900019F0019741F00CC081E090E090932301A7
:1003A0008093220105C010922301109222010000C7
:1003B0008091220190912301009719F0019729F073
:1003C00007C088E080931C0103C010921C0100004C
:1003D0000000DF91CF910895CF93DF93CDB7DEB7C3
:1003E00000008091240190912501892B09F00BC018
:1003F00090911B0180911C01982B80911D01892BEC
:1004000080931F0100000000DF91CF910895CF93EA
:10041000DF93CDB7DEB780E290E0FC01808180956C
:10042000847080931E018091260190912701813074
:100430009105B1F08130910518F0029709F12FC0B4
:1004400080911E01882339F081E090E0909327018C
:100450008093260124C010922701109226011FC00C
:1004600080911E01882339F082E090E0909327016B
:100470008093260114C010922701109226010FC00C
:1004800080911E01882339F081E090E0909327014C
:100490008093260104C010922701109226018091BA
:1004A0002601909127018130910549F08130910515
:1004B00018F0029741F00AC010921D0107C080E1B8
:1004C00080931D0103C010921D0100000000DF9108
:1004D000CF910895CF93DF9300D0CDB7DEB780E200
:1004E00090E0FC018081882F90E08170992721E0C5
:1004F000892B09F020E0298380E290E0FC018081D3
:10050000809582708A8380912001909121018230B0
:100510009105B1F18330910528F4009751F00197CE
:1005200041F153C083309105D1F1049709F43EC0E5
:100530004CC08981882351F08A81882339F481E075
:1005400090E0909321018093200112C0898188233B
:1005500051F48A81882339F083E090E0909321015F
:100560008093200105C010922101109220012DC01E
:100570002CC082E090E0909321018093200125C05F
:100580008981882339F082E090E090932101809363
:1005900020011BC0109221011092200116C084E09E
:1005A00090E090932101809320010FC08A818823DD
:1005B00039F084E090E0909321018093200104C001
:1005C0001092210110922001000080912001909151
:1005D00021018230910599F18330910528F400972B
:1005E00081F1019721F02EC00397A9F02BC08091D3
:1005F000120190911301A0911401B091150101967F
:10060000A11DB11D8093120190931301A0931401B9
:10061000B093150117C08091120190911301A09120
:100620001401B09115010197A109B109809312013C
:1006300090931301A0931401B093150103C000001F
:1006400001C0000000000F900F90DF91CF9108953E
:10065000CF93DF93CDB7DEB768970FB6F894DEBFC0
:100660000FBECDBF81E290E0FC01108282E290E0FB
:100670002FEFFC01208384E290E02FEFFC01208328
:1006800085E290E0FC01108219821A821B821C8292
:100690001D821E821F82188619861A861B861C865A
:1006A00088EE93E0A0E0B0E08D879E87AF87B88B9F
:1006B0008CE291E0A0E0B0E0898B9A8BAB8BBC8B95
:1006C00081E090E0A0E0B0E08D8B9E8BAF8BB88F87
:1006D0008D899E89AF89B88DBC01CD010E9417011B
:1006E0000E946700109225011092240110922901A6
:1006F00010922801109223011092220129813A813F
:100700004B815C818D859E85AF85B8892817390717
:100710004A075B0730F00E94BF0119821A821B82D0
:100720001C822D813E814F81588589899A89AB89A8
:10073000BC89281739074A075B0730F00E946E0111
:100740001D821E821F8218868091120190911301D2
:10075000A0911401B091150129853A854B855C85DE
:10076000281739074A075B0730F00E9407021986ED
:100770001A861B861C860E946A020E94EC0185E292
:1007800090E020911F01FC01208300008091160160
:100790008823E1F31092160129813A814B815C8113
:1007A0008D899E89AF89B88D820F931FA41FB51FB5
:1007B00089839A83AB83BC832D813E814F81588589
:1007C0008D899E89AF89B88D820F931FA41FB51F95
:1007D0008D839E83AF83B88729853A854B855C8559
:1007E0008D899E89AF89B88D820F931FA41FB51F75
:0E07F00089879A87AB87BC8781CFF894FFCFAB
:1007FE0001000000000000020000000045010000A2
:06080E00000002000000E2
:00000001FF
