:100000000C9446000C9465000C9465000C946500FB
:100010000C9465000C9465000C9465000C946500CC
:100020000C9465000C9465000C9465000C946500BC
:100030000C9465000C94B5000C9465000C9465005C
:100040000C9465000C9465000C9465000C9465009C
:100050000C9465000C9465000C9465000C9465008C
:100060000C9465000C9465000C9465000C9465007C
:100070000C9465000C9465000C9465000C9465006C
:100080000C9465000C9465000C94650011241FBE4F
:10009000CFEFD0E4DEBFCDBF11E0A0E0B1E0EAEAEF
:1000A000F5E000E00BBF02C007900D92A231B1074E
:1000B000D9F721E0A2E1B1E001C01D92A432B2075C
:1000C000E1F70E94A4020C94D3020C940000CF9399
:1000D000DF93CDB7DEB781E890E02BE0FC01208311
:1000E00088E890E02DE730E0FC01318320838FE643
:1000F00090E022E0FC01208384E890E0FC01118282
:1001000010828091000190910101A0910201B091B3
:1001100003018093130190931401A0931501B093F0
:1001200016018FE590E02FE530E0F901208120688D
:10013000FC0120830000DF91CF910895CF93DF93DE
:10014000CDB7DEB781E890E0FC0110820000DF91BE
:10015000CF910895CF93DF93CDB7DEB781E0809341
:1001600012010000DF91CF9108951F920F9200902D
:100170005F000F92112400905B000F922F933F932A
:100180004F935F936F937F938F939F93AF93BF939F
:10019000EF93FF93CF93DF93CDB7DEB78091130139
:1001A00090911401A0911501B09116010197A10938
:1001B000B1098093130190931401A0931501B0939A
:1001C00016018091130190911401A0911501B09135
:1001D0001601892B8A2B8B2B91F40E94AA00809107
:1001E000000190910101A0910201B091030180935F
:1001F000130190931401A0931501B0931601000010
:10020000DF91CF91FF91EF91BF91AF919F918F912E
:100210007F916F915F914F913F912F910F9000923D
:100220005B000F9000925F000F901F901895CF9386
:10023000DF9300D000D0CDB7DEB769837A838B839C
:100240009C8389819A81AB81BC81809300019093CA
:100250000101A0930201B0930301809100019091EC
:100260000101A0910201B0910301809313019093C9
:100270001401A0931501B093160100000F900F9088
:100280000F900F90DF91CF910895CF93DF9300D01F
:100290001F92CDB7DEB789837B836A8389818A30D9
:1002A00031F48A819B81BC018DE00E94450180EC84
:1002B00090E0FC018081882F90E080729927892B43
:1002C000B1F386EC90E02981FC01208380E090E08E
:1002D0000F900F900F90DF91CF910895CF93DF9300
:1002E000CDB7DEB780911E0190911F01813091053D
:1002F00089F08130910538F08230910569F10397DA
:1003000009F44CC06DC081E090E090931F01809390
:100310001E0166C080911A0190911B01883E934096
:1003200080F481E090E090931F0180931E01809102
:100330001A0190911B01019690931B0180931A0161
:100340004FC082E090E090931F0180931E011092B5
:100350001B0110921A0144C080911A0190911B0157
:10036000883E934080F482E090E090931F01809358
:100370001E0180911A0190911B01019690931B011F
:1003800080931A012DC083E090E090931F01809329
:100390001E0110921B0110921A0122C080911A01B5
:1003A00090911B01883E934080F483E090E090930D
:1003B0001F0180931E0180911A0190911B010196EB
:1003C00090931B0180931A010AC081E090E0909302
:1003D0001F0180931E0110921B0110921A01000050
:1003E00080911E0190911F018130910549F081306B
:1003F000910590F08230910539F0039749F00DC0D6
:1004000081E08093170109C082E08093170105C045
:1004100084E08093170101C000000000DF91CF91BC
:100420000895CF93DF93CDB7DEB7809122019091ED
:1004300023018130910579F18130910518F00297FF
:1004400041F04BC082E090E0909323018093220121
:1004500044C080911C0190911D01883E934080F41E
:1004600082E090E0909323018093220180911C010F
:1004700090911D01019690931D0180931C012DC048
:1004800081E090E0909323018093220110921D015E
:1004900010921C0122C080911C0190911D01883E88
:1004A000934080F481E090E09093230180932201B7
:1004B00080911C0190911D01019690931D018093E4
:1004C0001C010AC082E090E09093230180932201F6
:1004D00010921D0110921C01000080912201909148
:1004E00023018130910551F08130910550F0029740
:1004F00009F008C088E08093180104C01092180128
:1005000001C000000000DF91CF910895CF93DF93E9
:10051000CDB7DEB700008091200190912101892B99
:1005200009F00EC09091170180911801892B8093DA
:10053000190185E290E020911901FC01208300005F
:100540000000DF91CF910895CF93DF93CDB7DEB751
:1005500084E290E02FEFFC01208385E290E0FC0133
:10056000108210921F0110921E011092230110920E
:100570002201109221011092200161E070E080E0E0
:1005800090E00E9417010E9467000E946E010E9485
:1005900011020E9486020000809112018823E1F37B
:0A05A00010921201F2CFF894FFCF81
:1005AA0001000000000000020000000045010000F8
:0205BA0000003F
:00000001FF
