:100000000C9446000C9465000C9465000C946500FB
:100010000C9465000C9465000C9465000C946500CC
:100020000C9465000C9465000C9465000C946500BC
:100030000C9465000C94B5000C9465000C9465005C
:100040000C9465000C9465000C9465000C9465009C
:100050000C9465000C9465000C9465000C9465008C
:100060000C9465000C9465000C9465000C9465007C
:100070000C9465000C9465000C9465000C9465006C
:100080000C9465000C9465000C94650011241FBE4F
:10009000CFEFD0E4DEBFCDBF11E0A0E0B1E0E2E4FD
:1000A000F7E000E00BBF02C007900D92A231B1074C
:1000B000D9F721E0A2E1B1E001C01D92AA32B20756
:1000C000E1F70E9461030C949F030C940000CF930E
:1000D000DF93CDB7DEB781E890E02BE0FC01208311
:1000E00088E890E02DE730E0FC01318320838FE643
:1000F00090E022E0FC01208384E890E0FC01118282
:1001000010828091000190910101A0910201B091B3
:1001100003018093130190931401A0931501B093F0
:1001200016018FE590E02FE530E0F901208120688D
:10013000FC0120830000DF91CF910895CF93DF93DE
:10014000CDB7DEB781E890E0FC0110820000DF91BE
:10015000CF910895CF93DF93CDB7DEB781E0809341
:1001600012010000DF91CF9108951F920F9200902D
:100170005F000F92112400905B000F922F933F932A
:100180004F935F936F937F938F939F93AF93BF939F
:10019000EF93FF93CF93DF93CDB7DEB78091130139
:1001A00090911401A0911501B09116010197A10938
:1001B000B1098093130190931401A0931501B0939A
:1001C00016018091130190911401A0911501B09135
:1001D0001601892B8A2B8B2B91F40E94AA00809107
:1001E000000190910101A0910201B091030180935F
:1001F000130190931401A0931501B0931601000010
:10020000DF91CF91FF91EF91BF91AF919F918F912E
:100210007F916F915F914F913F912F910F9000923D
:100220005B000F9000925F000F901F901895CF9386
:10023000DF9300D000D0CDB7DEB769837A838B839C
:100240009C8389819A81AB81BC81809300019093CA
:100250000101A0930201B0930301809100019091EC
:100260000101A0910201B0910301809313019093C9
:100270001401A0931501B093160100000F900F9088
:100280000F900F90DF91CF910895CF93DF9300D01F
:100290001F92CDB7DEB789837B836A8389818A30D9
:1002A00031F48A819B81BC018DE00E94450180EC84
:1002B00090E0FC018081882F90E080729927892B43
:1002C000B1F386EC90E02981FC01208380E090E08E
:1002D0000F900F900F90DF91CF910895CF93DF9300
:1002E000CDB7DEB780912401909125018130910531
:1002F00089F08130910538F08230910569F10397DA
:1003000009F44CC06DC081E090E09093250180938A
:10031000240166C080911C0190911D018C32914096
:1003200080F481E090E090932501809324018091F6
:100330001C0190911D01019690931D0180931C0159
:100340004FC082E090E090932501809324011092A9
:100350001D0110921C0144C080911C0190911D014F
:100360008C32914080F482E090E09093250180935C
:10037000240180911C0190911D01019690931D0113
:1003800080931C012DC083E090E090932501809321
:10039000240110921D0110921C0122C080911C01A9
:1003A00090911D018C32914080F483E090E0909315
:1003B00025018093240180911C0190911D010196DB
:1003C00090931D0180931C010AC081E090E09093FE
:1003D00025018093240110921D0110921C01000040
:1003E00080912401909125018130910549F081305F
:1003F000910590F08230910539F0039749F00DC0D6
:1004000081E08093170109C082E08093170105C045
:1004100084E08093170101C000000000DF91CF91BC
:100420000895CF93DF93CDB7DEB7809128019091E7
:1004300029018130910579F18130910518F00297F9
:1004400041F04BC082E090E0909329018093280115
:1004500044C080911E0190911F01883E934080F41A
:1004600082E090E0909329018093280180911E0101
:1004700090911F01019690931F0180931E012DC042
:1004800081E090E0909329018093280110921F0150
:1004900010921E0122C080911E0190911F01883E82
:1004A000934080F481E090E09093290180932801AB
:1004B00080911E0190911F01019690931F018093DE
:1004C0001E010AC082E090E09093290180932801E8
:1004D00010921F0110921E0100008091280190913E
:1004E00029018130910551F08130910550F002973A
:1004F00009F008C088E080931A0104C010921A0124
:1005000001C000000000DF91CF910895CF93DF93E9
:10051000CDB7DEB780E290E0FC01808180958470E9
:1005200080931801809122019091230181309105DF
:1005300009F475C08130910538F08230910509F4D5
:100540003EC0039761F07DC081E090E0909323016D
:1005500080932201109221011092200172C080919B
:100560002001909121010297A0F480911801882325
:1005700081F083E090E090932301809322018091A9
:1005800020019091210101969093210180932001F7
:1005900058C080911801882359F082E090E0909330
:1005A000230180932201109221011092200149C061
:1005B00081E090E0909323018093220142C08091DA
:1005C0002001909121010297A0F4809118018823C5
:1005D00081F082E090E0909323018093220180914A
:1005E0002001909121010196909321018093200197
:1005F00028C080911801882359F083E090E09093FF
:10060000230180932201109221011092200119C030
:1006100081E090E0909323018093220112C08091A9
:100620001801882339F083E090E0909323018093B0
:10063000220107C081E090E0909323018093220182
:10064000000080912201909123018230910551F0A8
:100650008330910519F0019741F00EC080E180933D
:1006600019010AC01092190107C0109219011092C5
:1006700021011092200100000000DF91CF91089528
:10068000CF93DF93CDB7DEB7000080912601909124
:100690002701892B09F011C09091170180911A014F
:1006A000982B80911901892B80931B0185E290E0A2
:1006B00020911B01FC01208300000000DF91CF91FD
:1006C0000895CF93DF93CDB7DEB781E290E0FC01D0
:1006D000108282E290E02FEFFC01208384E290E020
:1006E0002FEFFC01208385E290E0FC011082109244
:1006F00025011092240110922901109228011092D4
:10070000230110922201109227011092260161E02C
:1007100070E080E090E00E9417010E9467000E9454
:100720006E010E9486020E9411020E944003000096
:10073000809112018823E1F310921201F0CFF89416
:02074000FFCFE9
:10074200010000000000000200000000450100005E
:020752000000A5
:00000001FF
