:100000000C9446000C9465000C9465000C946500FB
:100010000C9465000C9465000C9465000C946500CC
:100020000C9465000C9465000C9465000C946500BC
:100030000C9465000C94B5000C9465000C9465005C
:100040000C9465000C9465000C9465000C9465009C
:100050000C9465000C9465000C9465000C9465008C
:100060000C9465000C9465000C9465000C9465007C
:100070000C9465000C9465000C9465000C9465006C
:100080000C9465000C9465000C94650011241FBE4F
:10009000CFEFD0E4DEBFCDBF11E0A0E0B1E0E2E3FE
:1000A000F6E000E00BBF02C007900D92A231B1074D
:1000B000D9F721E0A2E1B1E001C01D92A532B2075B
:1000C000E1F70E94E8020C9417030C940000CF9310
:1000D000DF93CDB7DEB781E890E02BE0FC01208311
:1000E00088E890E02DE730E0FC01318320838FE643
:1000F00090E022E0FC01208384E890E0FC01118282
:1001000010828091000190910101A0910201B091B3
:1001100003018093130190931401A0931501B093F0
:1001200016018FE590E02FE530E0F901208120688D
:10013000FC0120830000DF91CF910895CF93DF93DE
:10014000CDB7DEB781E890E0FC0110820000DF91BE
:10015000CF910895CF93DF93CDB7DEB781E0809341
:1001600012010000DF91CF9108951F920F9200902D
:100170005F000F92112400905B000F922F933F932A
:100180004F935F936F937F938F939F93AF93BF939F
:10019000EF93FF93CF93DF93CDB7DEB78091130139
:1001A00090911401A0911501B09116010197A10938
:1001B000B1098093130190931401A0931501B0939A
:1001C00016018091130190911401A0911501B09135
:1001D0001601892B8A2B8B2B91F40E94AA00809107
:1001E000000190910101A0910201B091030180935F
:1001F000130190931401A0931501B0931601000010
:10020000DF91CF91FF91EF91BF91AF919F918F912E
:100210007F916F915F914F913F912F910F9000923D
:100220005B000F9000925F000F901F901895CF9386
:10023000DF9300D000D0CDB7DEB769837A838B839C
:100240009C8389819A81AB81BC81809300019093CA
:100250000101A0930201B0930301809100019091EC
:100260000101A0910201B0910301809313019093C9
:100270001401A0931501B093160100000F900F9088
:100280000F900F90DF91CF910895CF93DF9300D01F
:100290001F92CDB7DEB789837B836A8389818A30D9
:1002A00031F48A819B81BC018DE00E94450180EC84
:1002B00090E0FC018081882F90E080729927892B43
:1002C000B1F386EC90E02981FC01208380E090E08E
:1002D0000F900F900F90DF91CF910895CF93DF9300
:1002E000CDB7DEB780912101909122018130910537
:1002F00089F08130910538F08230910569F10397DA
:1003000009F44CC06DC081E090E09093220180938D
:10031000210166C080911B0190911C018C3291409B
:1003200080F481E090E090932201809321018091FC
:100330001B0190911C01019690931C0180931B015D
:100340004FC082E090E090932201809321011092AF
:100350001C0110921B0144C080911B0190911C0153
:100360008C32914080F482E090E09093220180935F
:10037000210180911B0190911C01019690931C0119
:1003800080931B012DC083E090E090932201809325
:10039000210110921C0110921B0122C080911B01AF
:1003A00090911C018C32914080F483E090E0909316
:1003B00022018093210180911B0190911C010196E3
:1003C00090931C0180931B010AC081E090E0909300
:1003D00022018093210110921C0110921B01000048
:1003E00080912101909122018130910549F0813065
:1003F000910590F08230910539F0039749F00DC0D6
:1004000081E08093170109C082E08093170105C045
:1004100084E08093170101C000000000DF91CF91BC
:100420000895CF93DF93CDB7DEB780E290E0FC0173
:10043000808184708093180180911F019091200128
:100440008130910509F475C08130910538F0823012
:10045000910509F43EC0039761F07DC081E090E012
:100460009093200180931F0110921E0110921D0194
:1004700072C080911D0190911E010297A0F480919D
:100480001801882381F083E090E09093200180930D
:100490001F0180911D0190911E01019690931E01F4
:1004A00080931D0158C080911801882359F082E083
:1004B00090E09093200180931F0110921E011092F2
:1004C0001D0149C081E090E09093200180931F01BD
:1004D00042C080911D0190911E010297A0F480916D
:1004E0001801882381F082E090E0909320018093AE
:1004F0001F0180911D0190911E01019690931E0194
:1005000080931D0128C080911801882359F083E051
:1005100090E09093200180931F0110921E01109291
:100520001D0119C081E090E09093200180931F018C
:1005300012C080911801882339F083E090E09093F5
:10054000200180931F0107C081E090E0909320017B
:1005500080931F01000080911F0190912001823043
:10056000910551F08330910519F0019741F00EC0CB
:1005700088E0809319010AC01092190107C01092F7
:10058000190110921E0110921D0100000000DF9160
:10059000CF910895CF93DF93CDB7DEB70000809160
:1005A000230190912401892B09F00EC0909117012D
:1005B00080911901892B80931A0185E290E02091A6
:1005C0001A01FC01208300000000DF91CF91089503
:1005D000CF93DF93CDB7DEB784E290E02FEFFC013D
:1005E000208385E290E0FC0110821092220110929B
:1005F00021011092200110921F01109224011092EB
:10060000230161E070E080E090E00E9417010E9409
:1006100067000E946E010E9411020E94CA0200003F
:10062000809112018823E1F310921201F2CFF89425
:02063000FFCFFA
:10063200010000000000000200000000450100006F
:020642000000B6
:00000001FF
