:100000000C9446000C9465000C9465000C946500FB
:100010000C9465000C9465000C9465000C946500CC
:100020000C9465000C9465000C9465000C946500BC
:100030000C9465000C9465000C9465000C946500AC
:100040000C9465000C9465000C9465000C9465009C
:100050000C9465000C9465000C9465000C9465008C
:100060000C9465000C9465000C9465000C9465007C
:100070000C9465000C9465000C9465000C9465006C
:100080000C9465000C9465000C94650011241FBE4F
:10009000CFEFD0E4DEBFCDBF11E0A0E0B1E0ECEFE8
:1000A000F7E000E00BBF02C007900D92AE30B10741
:1000B000D9F721E0AEE0B1E001C01D92A431B20752
:1000C000E1F70E9449020C94FC030C940000CF93CA
:1000D000DF9300D01F92CDB7DEB789837B836A831D
:1000E00089818A3031F48A819B81BC018DE00E9434
:1000F000670080EC90E0FC018081882F90E08072A6
:100100009927892BB1F386EC90E02981FC012083AB
:1001100080E090E00F900F900F90DF91CF910895C5
:100120000F931F93CF93DF9300D000D0CDB7DEB7EE
:1001300069837A838B839C8380910E0190910F0158
:10014000A0911001B09111019C01AD0169817A81EA
:100150008B819C810E946802882309F477C020E08B
:1001600030E0A90169817A818B819C810E946802BB
:10017000882351F481E990E021E930E0F901208100
:100180002870FC01208309C081E990E021E930E07A
:10019000F90120812360FC01208328E539E344E74D
:1001A0005FE369817A818B819C810E946802882348
:1001B00044F488E990E02FEF3FEFFC013183208386
:1001C00034C020E034E244EF56E469817A818B81C7
:1001D0009C810E948A03181634F488E990E0FC019F
:1001E0001182108222C008E910E020E030E040E0F7
:1001F00053E469817A818B819C810E948F03DC01A9
:10020000CB019C01AD0160E074E284EF9AE40E94AE
:100210006D02DC01CB01BC01CD010E94DF02DC01DB
:10022000CB010197F8019183808384E990E0FC0180
:100230001182108289819A81AB81BC8180930E01E9
:1002400090930F01A0931001B093110100000F9043
:100250000F900F900F90DF91CF911F910F91089504
:10026000CF93DF93CDB7DEB780E990E020E4FC01C7
:10027000208381E990E02BE0FC01208360E070E0C6
:10028000CB010E9490000000DF91CF910895CF93A1
:10029000DF93CDB7DEB780E990E0FC01108281E901
:1002A00090E0FC0110820000DF91CF910895CF9380
:1002B000DF9300D01F92CDB7DEB780E290E0FC0163
:1002C0008081882F90E08170992721E0892B09F0A7
:1002D00020E0298380E290E0FC018081809582709B
:1002E0008A8380E290E0FC018081809584708B831A
:1002F00080911201909113018230910509F44FC051
:100300008330910528F4009759F0019781F08CC053
:100310008330910509F45AC0049709F46EC084C073
:1003200081E090E090931301809312017DC0898158
:10033000882369F08A81882351F48B81882339F4DA
:1003400082E090E0909313018093120127C089818D
:10035000882369F48A81882351F08B81882339F4BA
:1003600083E090E0909313018093120117C089817C
:10037000882369F48A81882351F48B81882339F09A
:1003800084E090E0909313018093120107C081E014
:1003900090E0909313018093120146C045C089817B
:1003A000882369F08A81882351F48B81882339F46A
:1003B00082E090E0909313018093120135C081E0B8
:1003C00090E090931301809312012EC089818823BD
:1003D00069F48A81882351F08B81882339F483E082
:1003E00090E090931301809312011EC081E090E091
:1003F000909313018093120117C08981882369F4B7
:100400008A81882351F48B81882339F084E090E03D
:10041000909313018093120106C081E090E09093C5
:100420001301809312010000809112019091130139
:100430008230910591F08330910518F4019739F0DD
:1004400021C08330910581F00497A9F01BC060E0C2
:1004500070E0CB010E94900015C064EA70ED82E864
:1004600093E40E9490000EC06BE774ED82E993E480
:100470000E94900007C064EA70ED84EA93E40E9451
:100480009000000000000F900F900F90DF91CF912F
:100490000895CF93DF93CDB7DEB781E290E0FC0102
:1004A000108282E290E02FEFFC01208384E290E052
:1004B0002FEFFC01208385E290E0FC0110820E9476
:1004C000300110921301109212010E945701FDCFCA
:1004D0000E94150308F481E008950E9481020C94A3
:1004E00050030E94490358F00E94420340F029F44F
:1004F0005F3F29F00C94390351110C9484030C9440
:100500003F030E94610368F39923B1F3552391F3EC
:10051000951B550BBB27AA2762177307840738F072
:100520009F5F5F4F220F331F441FAA1FA9F335D0CF
:100530000E2E3AF0E0E832D091505040E695001C83
:10054000CAF72BD0FE2F29D0660F771F881FBB1F3D
:10055000261737074807AB07B0E809F0BB0B802D1B
:10056000BF01FF2793585F4F3AF09E3F510578F047
:100570000C9439030C9484035F3FE4F3983ED4F366
:10058000869577956795B795F7959F5FC9F7880F1B
:10059000911D9695879597F90895E1E0660F771F6D
:1005A000881FBB1F621773078407BA0720F0621BFE
:1005B000730B840BBA0BEE1F88F7E09508950E9429
:1005C000E6026894B1110C94840308950E946903B3
:1005D00088F09F5798F0B92F9927B751B0F0E1F004
:1005E000660F771F881F991F1AF0BA95C9F714C0B4
:1005F000B13091F00E948303B1E008950C9483031D
:10060000672F782F8827B85F39F0B93FCCF38695EC
:1006100077956795B395D9F73EF490958095709549
:1006200061957F4F8F4F9F4F0895990F0008550F89
:10063000AA0BE0E8FEEF16161706E807F907C0F068
:1006400012161306E407F50798F0621B730B840B70
:10065000950B39F40A2661F0232B242B252B21F44A
:1006600008950A2609F4A140A6958FEF811D811DEA
:10067000089597F99F6780E870E060E008959FEF24
:1006800080EC089500240A94161617061806090629
:10069000089500240A9412161306140605060895F8
:1006A000092E0394000C11F4882352F0BB0F40F480
:1006B000BF2B11F460FF04C06F5F7F4F8F4F9F4FC0
:1006C000089557FD9058440F551F59F05F3F71F042
:1006D0004795880F97FB991F61F09F3F79F08795A9
:1006E0000895121613061406551FF2CF4695F1DF32
:1006F00008C0161617061806991FF1CF86957105C2
:10070000610508940895E894BB2766277727CB01F5
:1007100097F908950E94150308F48FEF08950E9439
:10072000A2030C9450030E94420338F00E94490334
:1007300020F0952311F00C9439030C943F031124FD
:100740000C9484030E94610370F3959FC1F3950F8D
:1007500050E0551F629FF001729FBB27F00DB11D45
:10076000639FAA27F00DB11DAA1F649F6627B00DD5
:10077000A11D661F829F2227B00DA11D621F739FBE
:10078000B00DA11D621F839FA00D611D221F749FCC
:100790003327A00D611D231F849F600D211D822F13
:1007A000762F6A2F11249F5750409AF0F1F088233A
:1007B0004AF0EE0FFF1FBB1F661F771F881F915067
:1007C0005040A9F79E3F510580F00C9439030C94DA
:1007D00084035F3FE4F3983ED4F38695779567955D
:1007E000B795F795E7959F5FC1F7FE2B880F911D91
:0C07F0009695879597F90895F894FFCF2F
:0E07FC00000000020000000067000000000086
:00000001FF
