:100000000C9456000C9475000C9475000C947500BB
:100010000C9475000C9475000C9475000C9475008C
:100020000C9475000C9475000C9475000C9475007C
:100030000C9475000C9475000C9475000C9475006C
:100040000C9475000C9475000C9475000C9475005C
:100050000C9475000C9475000C9475000C9475004C
:100060000C9475000C9475000C9475000C9475003C
:100070000C9475000C9475000C9475000C9475002C
:100080000C9475000C9475000C9475009E01B301DE
:10009000C801DF012902470230024E027A02AE0295
:1000A0007D02AE0286029A02AE02AE0211241FBE8B
:1000B000CFEFD0E4DEBFCDBF11E0A0E0B1E0E8EECD
:1000C000F8E000E00BBF02C007900D92AE32B1071E
:1000D000D9F721E0AEE2B1E001C01D92A533B2072D
:1000E000E1F70E94B6020C9472040C940000CF93C6
:1000F000DF9300D01F92CDB7DEB789837B836A83FD
:1001000089818A3031F48A819B81BC018DE00E9413
:10011000770080EC90E0FC018081882F90E0807275
:100120009927892BB1F386EC90E02981FC0120838B
:1001300080E090E00F900F900F90DF91CF910895A5
:100140000F931F93CF93DF9300D000D0CDB7DEB7CE
:1001500069837A838B839C8380912F0190913001F6
:10016000A0913101B09132019C01AD0169817A8188
:100170008B819C810E94DE02882309F477C020E0F5
:1001800030E0A90169817A818B819C810E94DE0225
:10019000882351F481E990E021E930E0F9012081E0
:1001A0002870FC01208309C081E990E021E930E05A
:1001B000F90120812360FC01208328E539E344E72D
:1001C0005FE369817A818B819C810E94DE028823B2
:1001D00044F488E990E02FEF3FEFFC013183208366
:1001E00034C020E034E244EF56E469817A818B81A7
:1001F0009C810E940004181634F488E990E0FC0108
:100200001182108222C008E910E020E030E040E0D6
:1002100053E469817A818B819C810E940504DC0111
:10022000CB019C01AD0160E074E284EF9AE40E948E
:10023000E302DC01CB01BC01CD010E945503DC01CE
:10024000CB010197F8019183808384E990E0FC0160
:100250001182108289819A81AB81BC8180932F01A8
:1002600090933001A0933101B093320100000F90C0
:100270000F900F900F90DF91CF911F910F910895E4
:10028000CF93DF93CDB7DEB780E990E020E4FC01A7
:10029000208381E990E02BE0FC01208360E070E0A6
:1002A000CB010E94A0000000DF91CF910895CF9371
:1002B000DF93CDB7DEB780E990E0FC01108281E9E1
:1002C00090E0FC0110820000DF91CF910895CF9360
:1002D000DF9300D01F92CDB7DEB780E290E0FC0143
:1002E0008081882F90E08170992721E0892B09F087
:1002F00020E0298380E290E0FC018081809582707B
:100300008A8380E290E0FC018081809584708B83F9
:100310008091330190913401CC01A0E0B0E040E045
:1003200050E027E030E0841B950B2817390708F4CC
:10033000CCC08A5B9F4FFC010C94D5028981882335
:1003400069F08A81882351F48B81882339F482E013
:1003500090E09093340180933301B7C01092340140
:1003600010923301B2C08981882359F48A8188238D
:1003700041F48B81882329F41092340110923301C7
:10038000A4C081E090E090933401809333019DC03C
:100390008981882369F08A81882351F48B8188239D
:1003A00039F482E090E090933401809333018DC062
:1003B00083E090E0909334018093330186C089817B
:1003C0008823B1F48A81882399F08B81882381F472
:1003D00080912E01883028F480912E018F5F8093C8
:1003E0002E0184E090E0909334018093330130C07B
:1003F00089818823B1F48A81882399F48B818823A9
:1004000081F080912E01882329F080912E01815066
:1004100080932E0185E090E0909334018093330126
:1004200017C08981882369F08A81882351F48B81E0
:10043000882339F481E090E0909334018093330174
:1004400007C083E090E090933401809333013DC076
:100450003CC086E090E0909334018093330135C036
:100460008981882369F48A81882351F08B818823CC
:1004700039F486E090E0909334018093330125C0F5
:1004800083E090E090933401809333011EC087E0B5
:1004900090E0909334018093330117C089818823C1
:1004A00069F48A81882351F48B81882339F087E0AD
:1004B00090E0909334018093330106C083E090E094
:1004C0009093340180933301000080913301909127
:1004D0003401CC01A0E0B0E040E050E027E030E0A3
:1004E000841B950B28173907D0F1825B9F4FFC01C5
:1004F0000C94D5020E94570132C00E94400164EA68
:1005000070ED82E893E40E94A00029C080912E0142
:10051000882F90E0880F991F880F991F825F9E4F48
:10052000FC0180819181A281B381BC01CD010E9437
:10053000A00015C080912E01882F90E0880F991F90
:10054000880F991F825F9E4FFC0180819181A2815B
:10055000B381BC01CD010E94A00001C000000000D9
:100560000F900F900F90DF91CF910895CF93DF936D
:10057000CDB7DEB781E290E0FC01108282E290E02C
:100580002FEFFC01208384E290E02FEFFC01208319
:1005900085E290E0FC0110820E944001109234013B
:1005A000109233010E946701FDCFEE0FFF1F002460
:1005B000001C0BBE0790F691E02D09940E948B035E
:1005C00008F481E008950E94F7020C94C6030E948B
:1005D000BF0358F00E94B80340F029F45F3F29F0B0
:1005E0000C94AF0351110C94FA030C94B5030E94C0
:1005F000D70368F39923B1F3552391F3951B550B5A
:10060000BB27AA2762177307840738F09F5F5F4FE5
:10061000220F331F441FAA1FA9F335D00E2E3AF024
:10062000E0E832D091505040E695001CCAF72BD03C
:10063000FE2F29D0660F771F881FBB1F261737078D
:100640004807AB07B0E809F0BB0B802DBF01FF27BF
:1006500093585F4F3AF09E3F510578F00C94AF03EA
:100660000C94FA035F3FE4F3983ED4F386957795B4
:100670006795B795F7959F5FC9F7880F911D969578
:10068000879597F90895E1E0660F771F881FBB1FD4
:10069000621773078407BA0720F0621B730B840B81
:1006A000BA0BEE1F88F7E09508950E945C036894EA
:1006B000B1110C94FA0308950E94DF0388F09F574C
:1006C00098F0B92F9927B751B0F0E1F0660F771F76
:1006D000881F991F1AF0BA95C9F714C0B13091F06C
:1006E0000E94F903B1E008950C94F903672F782F65
:1006F0008827B85F39F0B93FCCF386957795679531
:10070000B395D9F73EF490958095709561957F4F9C
:100710008F4F9F4F0895990F0008550FAA0BE0E8DF
:10072000FEEF16161706E807F907C0F012161306B3
:10073000E407F50798F0621B730B840B950B39F4F3
:100740000A2661F0232B242B252B21F408950A2659
:1007500009F4A140A6958FEF811D811D089597F999
:100760009F6780E870E060E008959FEF80EC089557
:1007700000240A9416161706180609060895002480
:100780000A9412161306140605060895092E0394FA
:10079000000C11F4882352F0BB0F40F4BF2B11F46E
:1007A00060FF04C06F5F7F4F8F4F9F4F089557FDCD
:1007B0009058440F551F59F05F3F71F04795880FCF
:1007C00097FB991F61F09F3F79F087950895121666
:1007D00013061406551FF2CF4695F1DF08C0161612
:1007E00017061806991FF1CF8695710561050894C3
:1007F0000895E894BB2766277727CB0197F90895DA
:100800000E948B0308F48FEF08950E9418040C9443
:10081000C6030E94B80338F00E94BF0320F095235E
:1008200011F00C94AF030C94B50311240C94FA034B
:100830000E94D70370F3959FC1F3950F50E0551FA9
:10084000629FF001729FBB27F00DB11D639FAA2725
:10085000F00DB11DAA1F649F6627B00DA11D661F74
:10086000829F2227B00DA11D621F739FB00DA11D95
:10087000621F839FA00D611D221F749F3327A00D4F
:10088000611D231F849F600D211D822F762F6A2FEB
:1008900011249F5750409AF0F1F088234AF0EE0F50
:1008A000FF1FBB1F661F771F881F91505040A9F77D
:1008B0009E3F510580F00C94AF030C94FA035F3F08
:1008C000E4F3983ED4F3869577956795B795F795B9
:1008D000E7959F5FC1F7FE2B880F911D9695879531
:0808E00097F90895F894FFCF89
:1008E8000000000200000000770000000000A4D013
:1008F80082437BD49243A4D0A443719DAE430000AD
:0E090800C4430000DC43A4F0F64300D00244D8
:00000001FF
