:100000000C9446000C945D000C945D000C945D0013
:100010000C945D000C945D000C945D000C945D00EC
:100020000C945D000C945D000C945D000C945D00DC
:100030000C945D000C945D000C945D000C945D00CC
:100040000C945D000C945D000C945D000C945D00BC
:100050000C945D000C945D000C945D000C945D00AC
:100060000C945D000C945D000C945D000C945D009C
:100070000C945D000C945D000C945D000C945D008C
:100080000C945D000C945D000C945D0011241FBE67
:10009000CFEFD0E4DEBFCDBF11E0A0E0B1E0E6EBF2
:1000A000F1E000E00BBF02C007900D92AE30B10747
:1000B000D9F70E9499000C94D9000C940000CF93BA
:1000C000DF9300D01F92CDB7DEB789837B836A832D
:1000D00089818A3031F48A819B81BC018DE00E9444
:1000E0005F0080EC90E0FC018081882F90E08072BE
:1000F0009927892BB1F386EC90E02981FC012083BC
:1001000080E090E00F900F900F90DF91CF910895D5
:10011000CF93DF93CDB7DEB78AE790E02AE730E0F0
:10012000F9012081206EFC0120830000DF91CF9136
:100130000895CF93DF9300D000D0CDB7DEB781E232
:1001400090E0FC01108282E290E02FEFFC0120831E
:1001500084E290E02FEFFC01208385E290E0FC0137
:1001600010828AE290E02FEFFC0120838BE290E086
:10017000FC0110820E9488008FED8A83198288E733
:1001800090E0FC01808191819C838B838A8186959C
:10019000282F30E08B819C818217930718F081E033
:1001A000898301C0198285E290E02981FC012083C6
:0601B000E6CFF894FFCF3A
:0E01B60000000002000000005F0000000000DA
:00000001FF
