:100000000C9446000C945D000C945D000C945D0013
:100010000C945D000C945D000C945D000C945D00EC
:100020000C945D000C945D000C945D000C945D00DC
:100030000C945D000C945D000C945D000C945D00CC
:100040000C945D000C945D000C945D000C945D00BC
:100050000C945D000C945D000C945D000C945D00AC
:100060000C945D000C945D000C945D000C945D009C
:100070000C945D000C945D000C945D000C945D008C
:100080000C945D000C945D000C945D0011241FBE67
:10009000CFEFD0E4DEBFCDBF11E0A0E0B1E0EAE8F1
:1000A000F2E000E00BBF02C007900D92AE30B10746
:1000B000D9F70E9499000C9443010C940000CF934F
:1000C000DF9300D01F92CDB7DEB789837B836A832D
:1000D00089818A3031F48A819B81BC018DE00E9444
:1000E0005F0080EC90E0FC018081882F90E08072BE
:1000F0009927892BB1F386EC90E02981FC012083BC
:1001000080E090E00F900F900F90DF91CF910895D5
:10011000CF93DF93CDB7DEB78AE790E02AE730E0F0
:10012000F9012081206EFC0120830000DF91CF9136
:100130000895CF93DF9300D000D000D0CDB7DEB7C5
:1001400081E290E0FC01108282E290E02FEFFC015E
:10015000208384E290E02FEFFC01208385E290E091
:10016000FC0110828AE290E02FEFFC0120838BE2F9
:1001700090E0FC0110820E9488008FED8A838A81C2
:10018000869586958695882F90E09C838B831E822A
:100190001D82198288E790E0FC01808191819E8315
:1001A0008D838D819E818B9718F481E0898365C052
:1001B0008B819C819C01220F331F8D819E8128178A
:1001C000390718F083E0898358C02B813C81C9012D
:1001D000880F991F280F391F8D819E812817390795
:1001E00018F087E0898349C08B819C819C01220F94
:1001F000331F220F331F8D819E812817390718F076
:100200008FE089833AC02B813C81C901880F991FF7
:10021000880F991F280F391F8D819E812817390754
:1002200018F08FE1898329C02B813C81C901880F97
:10023000991F820F931F880F991F9C018D819E81AA
:100240002817390718F08FE3898317C02B813C8169
:10025000C901880F991F880F991F880F991FAC013A
:10026000421B530B9A018D819E812817390718F084
:100270008FE7898302C08FEF898385E290E029812F
:0A028000FC01208387CFF894FFCF24
:0E028A0000000002000000005F000000000005
:00000001FF
