:100000000C9446000C9465000C9465000C946500FB
:100010000C9465000C9465000C9465000C946500CC
:100020000C9465000C9465000C9465000C946500BC
:100030000C9465000C9407020C9465000C94650008
:100040000C9465000C9465000C9465000C9465009C
:100050000C9465000C9465000C9465000C9465008C
:100060000C9465000C9465000C9465000C9465007C
:100070000C9465000C9465000C9465000C9465006C
:100080000C9465000C9465000C94650011241FBE4F
:10009000CFEFD0E4DEBFCDBF11E0A0E0B1E0E2EBF6
:1000A000F8E000E00BBF02C007900D92AC32B10740
:1000B000D9F721E0ACE2B1E001C01D92AF33B20745
:1000C000E1F70E9499030C9457040C940000CF931D
:1000D000DF93CDB7DEB781E00E948E000000DF9194
:1000E000CF910895CF93DF93CDB7DEB784E690E04C
:1000F0000E94320188E30E948E0086E00E948E00FA
:100100008FE00E948E0081E00E948E008AE090E0E5
:100110000E9432010000DF91CF910895CF93DF93C9
:100120001F92CDB7DEB789838BE290E02BE230E0FF
:10013000F90120812F7BFC01208385E290E0298159
:10014000FC0120838BE290E02BE230E0F90120817A
:100150002068FC01208300008BE290E02BE230E07D
:10016000F90120812F77FC01208382E090E00E943A
:10017000320100000F90DF91CF910895CF93DF936C
:100180001F92CDB7DEB789838BE290E02BE230E09F
:10019000F90120812064FC01208385E290E029811F
:1001A000FC0120838BE290E02BE230E0F90120811A
:1001B0002068FC01208300008BE290E02BE230E01D
:1001C000F90120812F77FC01208381E090E00E94DB
:1001D000320100000F90DF91CF910895CF93DF930C
:1001E00000D000D0CDB7DEB78A837C836B830E94BA
:1001F00067008A81898311C0898191E0980F998372
:100200000E941B018B819C819C012F5F3F4F3C838F
:100210002B83FC0180810E94BE008B819C81FC01AC
:100220008081882349F700000F900F900F900F9066
:10023000DF91CF910895CF93DF931F92CDB7DEB7B3
:1002400089838981813128F4898181580E948E00B7
:1002500004C0898181550E948E0000000F90DF91BB
:10026000CF910895CF93DF9300D000D000D0CDB7C9
:10027000DEB79E838D831A82198213C01C821B8273
:1002800006C000008B819C8101969C838B838B81AF
:100290009C8187309340ACF389819A8101969A833F
:1002A000898329813A818D819E812817390734F30A
:1002B000000026960FB6F894DEBF0FBECDBFDF91CB
:1002C000CF910895CF93DF9300D01F92CDB7DEB7C3
:1002D00089837B836A8389818A3031F48A819B8117
:1002E000BC018DE00E94620180EC90E0FC01808105
:1002F000882F90E080729927892BB1F386EC90E0EB
:100300002981FC01208380E090E00F900F900F90F6
:10031000DF91CF910895CF93DF9300D000D0CDB778
:10032000DEB769837A838B839C8389819A81AB81D1
:10033000BC8180930E0190930F01A0931001B093A4
:10034000110180910E0190910F01A0911001B091C7
:10035000110180932D0190932E01A0932F01B09352
:10036000300100000F900F900F900F90DF91CF9110
:100370000895CF93DF93CDB7DEB781E890E02BE00F
:10038000FC01208388E890E02DE730E0FC01318318
:1003900020838FE690E022E0FC01208384E890E057
:1003A000FC011182108280910E0190910F01A091A9
:1003B0001001B091110180932D0190932E01A09313
:1003C0002F01B09330018FE590E02FE530E0F90187
:1003D00020812068FC0120830000DF91CF910895E7
:1003E000CF93DF93CDB7DEB781E890E0FC011082B8
:1003F0000000DF91CF910895CF93DF93CDB7DEB7A3
:1004000081E080932C010000DF91CF9108951F922D
:100410000F9200905F000F92112400905B000F92EA
:100420002F933F934F935F936F937F938F939F93FC
:10043000AF93BF93EF93FF93CF93DF93CDB7DEB727
:1004400080912D0190912E01A0912F01B09130014A
:100450000197A109B10980932D0190932E01A093DA
:100460002F01B093300180912D0190912E01A09128
:100470002F01B0913001892B8A2B8B2B91F40E9494
:10048000FC0180910E0190910F01A0911001B0919B
:10049000110180932D0190932E01A0932F01B09311
:1004A00030010000DF91CF91FF91EF91BF91AF91AB
:1004B0009F918F917F916F915F914F913F912F917C
:1004C0000F9000925B000F9000925F000F901F90C2
:1004D0001895CF93DF93CDB7DEB780913C01909113
:1004E0003D018130910569F08130910518F0029746
:1004F00099F020C081E090E090933D0180933C0111
:1005000019C080913801823091F482E090E090939C
:100510003D0180933C010BC080913801813049F44A
:1005200081E090E090933D0180933C0102C0000087
:1005300001C0000080913C0190913D018130910506
:1005400031F08130910588F0029741F00FC081E0D1
:100550000E941B0181E08093330108C081E10E9469
:100560001B0181E18093330101C000000000DF9195
:10057000CF910895CF93DF93CDB7DEB78091390146
:1005800090913A01009719F0019741F02AC081E05B
:1005900090E090933A018093390123C08091370114
:1005A000813079F080913401813159F080913701A7
:1005B00081508093370180913401815080933401C0
:1005C0000FC080913701813021F480E180933701A1
:1005D00007C080913401813119F480E280933401A5
:1005E00000008091390190913A010097E1F0019764
:1005F00009F01AC00E9467008091370162E171E042
:100600000E94EE008091370180933E018091340179
:100610000E941B018FE390E00E94BE008091340194
:1006200080933B0101C000000000DF91CF9108954D
:10063000CF93DF93CDB7DEB780913501909136012E
:100640008230910541F18330910528F4009749F0FB
:10065000019771F03CC08330910521F1049769F155
:1006600036C083E090E090933601809335012FC02F
:100670009091330180913E01981731F090913301B0
:1006800080913B01981701F582E090E0909336014C
:100690008093350119C083E090E0909336018093F8
:1006A000350115C080913801843081F484E090E0F8
:1006B000909336018093350109C081E090E09093DA
:1006C00036018093350103C0000001C00000809115
:1006D0003501909136018230910589F08330910582
:1006E00028F40097F9F0019739F01FC08330910585
:1006F000D9F0049781F019C00E94690216C064E124
:1007000071E081E00E94EE0081E090E09093320180
:10071000809331010AC00E9467001092320110924A
:10072000310103C0000001C000000000DF91CF9143
:100730000895CF93DF93CDB7DEB72C970FB6F8941B
:10074000DEBF0FBECDBF84E290E02FEFFC0120831F
:1007500085E290E0FC01108281E290E0FC011082D1
:1007600082E290E02FEFFC0120838AE290E02FEFFD
:10077000FC0120838BE290E0FC0110821092380192
:100780008FE0809337018AE18093340181E090E02B
:10079000909332018093310182E390E0A0E0B0E0D9
:1007A00089839A83AB83BC838CE291E0A0E0B0E0C4
:1007B0008D839E83AF83B88782E390E0A0E0B0E0B2
:1007C00089879A87AB87BC8710923D0110923C01C4
:1007D00010923A01109239011092360110923501AF
:1007E00089859A85AB85BC85BC01CD010E948B01B2
:1007F0000E94B9010E94720080E290E0FC018081B9
:10080000809584708093380180913801843021F480
:100810001092320110923101809131019091320198
:10082000892BE9F489819A81AB81BC81C297A105AA
:10083000B10530F00E94180319821A821B821C82B3
:100840008D819E81AF81B8858C329140A105B10523
:1008500030F00E94BA021D821E821F82188600009C
:1008600080912C018823E1F310922C0129813A8197
:100870004B815C8189859A85AB85BC85820F931FEE
:10088000A41FB51F89839A83AB83BC832D813E81CE
:100890004F81588589859A85AB85BC85820F931FCA
:1008A000A41FB51F8D839E83AF83B887A5CFF8940F
:0208B000FFCF78
:1008B20000000002000000006201000000000100D0
:1008C20000003F004A75737420646F64676520748A
:0C08D20068656D2E2034486561640000EC
:00000001FF
