:100000000C948B000C94AA000C94AA000C94AA00E7
:100010000C94AA000C94AA000C94AA000C94AA00B8
:100020000C94AA000C94AA000C94AA000C94AA00A8
:100030000C94AA000C944C020C94AA000C94AA00F4
:100040000C94AA000C94AA000C94AA000C94AA0088
:100050000C94AA000C94AA000C94AA000C94AA0078
:100060000C94AA000C94AA000C94AA000C94AA0068
:100070000C94AA000C94AA000C94AA000C94AA0058
:100080000C94AA000C94AA000C94AA009B059B0552
:100090009B059B059B059B059B059B059B059B0560
:1000A0009B059B059B059B059B059B059B059B0550
:1000B0009B059B059B059B059B059B059B059B0540
:1000C0009B059B059B059B059B059B059B059B0530
:1000D0009B0587059B059B059B059B059B059B0534
:1000E00060059B059B059B059B059B0574055C04B2
:1000F000700484049804AC04C004D404E804FC0430
:100100009B059B059B059B059B059B059B0510057A
:10011000240538054C0511241FBECFEFD0E4DEBF07
:10012000CDBF11E0A0E0B1E0E0E3FEE000E00BBFF6
:1001300002C007900D92A432B107D9F721E0A4E2E2
:10014000B1E001C01D92A533B207E1F70E94B305EB
:100150000C9416070C940000CF93DF93CDB7DEB755
:1001600081E00E94D3000000DF91CF910895CF93EA
:10017000DF93CDB7DEB784E690E00E94770188E395
:100180000E94D30086E00E94D3008FE00E94D3003B
:1001900081E00E94D3008AE090E00E947701000095
:1001A000DF91CF910895CF93DF931F92CDB7DEB744
:1001B00089838BE290E02BE230E0F90120812F7BF4
:1001C000FC01208385E290E02981FC0120838BE201
:1001D00090E02BE230E0F90120812068FC012083CF
:1001E00000008BE290E02BE230E0F90120812F77D4
:1001F000FC01208382E090E00E94770100000F90D4
:10020000DF91CF910895CF93DF931F92CDB7DEB7E3
:1002100089838BE290E02BE230E0F90120812064B9
:10022000FC01208385E290E02981FC0120838BE2A0
:1002300090E02BE230E0F90120812068FC0120836E
:1002400000008BE290E02BE230E0F90120812F7773
:10025000FC01208381E090E00E94770100000F9074
:10026000DF91CF910895CF93DF9300D000D0CDB729
:10027000DEB78A837C836B830E94AC008A8189838A
:1002800011C0898191E0980F99830E9460018B8150
:100290009C819C012F5F3F4F3C832B83FC0180811D
:1002A0000E9403018B819C81FC018081882349F796
:1002B00000000F900F900F900F90DF91CF91089555
:1002C000CF93DF931F92CDB7DEB7898389818131C8
:1002D00028F4898181580E94D30004C08981815506
:1002E0000E94D30000000F90DF91CF910895CF932B
:1002F000DF9300D000D000D0CDB7DEB79E838D83D2
:100300001A82198213C01C821B8206C000008B81D6
:100310009C8101969C838B838B819C818730934049
:10032000ACF389819A8101969A83898329813A81E4
:100330008D819E812817390734F3000026960FB669
:10034000F894DEBF0FBECDBFDF91CF910895CF935C
:10035000DF9300D01F92CDB7DEB789837B836A839A
:1003600089818A3031F48A819B81BC018DE00E94B1
:10037000A70180EC90E0FC018081882F90E08072E2
:100380009927892BB1F386EC90E02981FC01208329
:1003900080E090E00F900F900F90DF91CF91089543
:1003A000CF93DF9300D000D0CDB7DEB769837A83D7
:1003B0008B839C8389819A81AB81BC8180930E0160
:1003C00090930F01A0931001B093110180910E0141
:1003D00090910F01A0911001B0911101809325011E
:1003E00090932601A0932701B093280100000F905D
:1003F0000F900F900F90DF91CF910895CF93DF93DF
:10040000CDB7DEB781E890E02BE0FC01208388E8DF
:1004100090E02DE730E0FC01318320838FE690E00F
:1004200022E0FC01208384E890E0FC01118210822C
:1004300080910E0190910F01A0911001B0911101D6
:100440008093250190932601A0932701B093280162
:100450008FE590E02FE530E0F90120812068FC0174
:1004600020830000DF91CF910895CF93DF93CDB724
:10047000DEB781E890E0FC0110820000DF91CF91AF
:100480000895CF93DF93CDB7DEB781E08093240149
:100490000000DF91CF9108951F920F9200905F00AE
:1004A0000F92112400905B000F922F933F934F9374
:1004B0005F936F937F938F939F93AF93BF93EF93CC
:1004C000FF93CF93DF93CDB7DEB780912501909155
:1004D0002601A0912701B09128010197A109B10936
:1004E0008093250190932601A0932701B0932801C2
:1004F0008091250190912601A0912701B0912801BA
:10050000892B8A2B8B2B91F40E94410280910E0142
:1005100090910F01A0911001B091110180932501DC
:1005200090932601A0932701B09328010000DF914A
:10053000CF91FF91EF91BF91AF919F918F917F915B
:100540006F915F914F913F912F910F9000925B00BF
:100550000F9000925F000F901F901895CF93DF933C
:10056000CDB7DEB72C970FB6F894DEBF0FBECDBF68
:100570006D837E838F83988729873A874B875C8733
:100580008D819E81AF81B88529853A854B855C85B3
:10059000BC01CD010E94EB06DC01CB0189839A836B
:1005A000AB83BC8389819A81AB81BC81892B8A2BE7
:1005B0008B2B29F489859A85AB85BC8511C08985EB
:1005C0009A85AB85BC858D839E83AF83B8878981EF
:1005D0009A81AB81BC8189879A87AB87BC87D0CF52
:1005E000BC01CD012C960FB6F894DEBF0FBECDBF77
:1005F000DF91CF910895CF93DF9300D01F92CDB7B5
:10060000DEB789836A834B838B81882371F08A816B
:10061000282F30E081E090E002C0880F991F2A95D2
:10062000E2F7982F8981892B0EC08A81282F30E02C
:1006300081E090E002C0880F991F2A95E2F7982F79
:100640009095898189230F900F900F90DF91CF9122
:100650000895CF93DF9300D0CDB7DEB789836A8347
:100660008A81282F30E081E090E002C0880F991F36
:100670002A95E2F7982F898189230F900F90DF91B7
:10068000CF9108950F931F93CF93DF93CDB7DEB72C
:1006900008E210E040E064E08FEF0E94FB02F80106
:1006A0008083000086E290E0FC018081809560E01C
:1006B0000E942903882311F081E3D3C086E290E0F1
:1006C000FC018081809561E00E942903882311F05C
:1006D00084E3C7C086E290E0FC018081809562E0FF
:1006E0000E942903882311F087E3BBC086E290E0D3
:1006F000FC018081809563E00E942903882311F02A
:100700008AE2AFC008E210E040E065E08FEF0E94AF
:10071000FB02F8018083000086E290E0FC0180810A
:10072000809560E00E942903882311F082E399C03C
:1007300086E290E0FC018081809561E00E942903BF
:10074000882311F085E38DC086E290E0FC01808172
:10075000809562E00E942903882311F088E381C01C
:1007600086E290E0FC018081809563E00E9429038D
:10077000882311F080E375C008E210E040E066E0F5
:100780008FEF0E94FB02F8018083000086E290E078
:10079000FC018081809560E00E942903882311F08C
:1007A00083E35FC086E290E0FC018081809561E098
:1007B0000E942903882311F086E353C086E290E06B
:1007C000FC018081809562E00E942903882311F05A
:1007D00089E347C086E290E0FC018081809563E078
:1007E0000E942903882311F083E23BC008E210E055
:1007F00040E067E08FEF0E94FB02F8018083000079
:1008000086E290E0FC018081809560E00E942903EF
:10081000882311F081E425C086E290E0FC0180810C
:10082000809561E00E942903882311F082E419C0B9
:1008300086E290E0FC018081809562E00E942903BD
:10084000882311F083E40DC086E290E0FC018081F2
:10085000809563E00E942903882311F084E401C09D
:1008600080E0DF91CF911F910F910895CF93DF9397
:1008700000D01F92CDB7DEB79B838A830E944203CC
:1008800089838A819B81892B09F065C18981882FA1
:1008900090E0092E000CAA0BBB0B40E050E024E4D2
:1008A00030E0841B950B2817390708F444C18A5B94
:1008B0009F4FFC010C940D0781E0809329018091EA
:1008C00012010E94600180912901882F90E0C0965A
:1008D0000E940301809112018F5F809312012BC14E
:1008E00082E080932901809112010E946001809131
:1008F0002901882F90E0C0960E9403018091120187
:100900008F5F8093120117C183E08093290180914A
:1009100012010E94600180912901882F90E0C09609
:100920000E940301809112018F5F8093120103C125
:1009300084E080932901809112010E9460018091DE
:100940002901882F90E0C0960E9403018091120136
:100950008F5F80931201EFC085E080932901809121
:1009600012010E94600180912901882F90E0C096B9
:100970000E940301809112018F5F80931201DBC0FE
:1009800086E080932901809112010E94600180918C
:100990002901882F90E0C0960E94030180911201E6
:1009A0008F5F80931201C7C087E0809329018091F7
:1009B00012010E94600180912901882F90E0C09669
:1009C0000E940301809112018F5F80931201B3C0D6
:1009D00088E080932901809112010E94600180913A
:1009E0002901882F90E0C0960E9403018091120196
:1009F0008F5F809312019FC089E0809329018091CD
:100A000012010E94600180912901882F90E0C09618
:100A10000E940301809112018F5F809312018BC0AD
:100A20008AE080932901809112010E9460018091E7
:100A30002901882F90E0C7960E940301809112013E
:100A40008F5F8093120177C08BE0809329018091A2
:100A500012010E94600180912901882F90E0C796C1
:100A60000E940301809112018F5F8093120163C085
:100A70008CE080932901809112010E946001809195
:100A80002901882F90E0C7960E94030180911201EE
:100A90008F5F809312014FC08DE080932901809178
:100AA00012010E94600180912901882F90E0C79671
:100AB0000E940301809112018F5F809312013BC05D
:100AC0008EE080932901809112010E946001809143
:100AD0002901882F90E04C960E9403018091120119
:100AE0008F5F8093120127C010922901809112011B
:100AF0000E94600180912901882F90E0C0960E9499
:100B00000301809112018F5F8093120114C08FE066
:100B100080932901809112010E9460018091290136
:100B2000882F90E044960E940301809112018F5F0C
:100B300080931201000080911201813119F481E04B
:100B4000809312011B821A8285E290E02091290194
:100B5000FC01208300008A819B810F900F900F90F1
:100B6000DF91CF9108950F931F93CF93DF93CDB76C
:100B7000DEB766970FB6F894DEBF0FBECDBF81E239
:100B800090E02FEFFC01208382E290E0FC011082D4
:100B900084E290E02FEFFC01208385E290E0FC01ED
:100BA000108287E290E020EFFC01208388E290E051
:100BB0002FE0FC0120838AE290E02FEFFC012083EC
:100BC0008BE290E0FC01108288EC90E0A0E0B0E0C5
:100BD0008B839C83AD83BE8381E090E0A0E0B0E096
:100BE0008F839887A987BA878F819885A985BA85C9
:100BF0008B879C87AD87BE878B819C81AD81BE81B1
:100C00008F87988BA98BBA8B8AE291E09E8B8D8B14
:100C100081E090E09C8B8B8B10922A018F859889C4
:100C2000A989BA8980932B0190932C01A0932D015F
:100C3000B0932E018F859889A989BA8980932F0155
:100C400090933001A0933101B093320186E394E098
:100C500090933401809333018B859C85AD85BE854F
:100C6000BC01CD010E94D0010E94FE010E94B7008C
:100C700063E171E081E00E9433011A8219829BC016
:100C800089819A81880F991F9E012F5F3F4F820FA4
:100C9000931F4496FC0180819181FC01258136815E
:100CA0004781508589819A81880F991FBE016F5FA6
:100CB0007F4F860F971F4496FC0180819181FC0134
:100CC00081819281A381B481281739074A075B0784
:100CD00008F445C089819A81880F991F9E012F5F72
:100CE0003F4F820F931F4496FC010081118189813F
:100CF0009A81880F991F9E012F5F3F4F820F931F8C
:100D00004496FC0180819181FC0121853285898195
:100D10009A81880F991FAE014F5F5F4F840F951F17
:100D20004496FC0180819181FC018081082E000C99
:100D3000990BF9010995F801808389819A81880FBF
:100D4000991F9E012F5F3F4F820F931F4496FC0116
:100D500080819181FC01158216821782108689811B
:100D60009A81880F991F9E012F5F3F4F820F931F1B
:100D70004496FC012081318189819A81880F991FD5
:100D8000AE014F5F5F4F840F951F4496FC01808139
:100D90009181FC0185819681A781B0850196A11D75
:100DA000B11DF90185839683A783B08789819A81D4
:100DB00001969A83898329813A818B899C89281796
:100DC000390708F45DCF0000809124018823E1F306
:100DD0001092240152CFA1E21A2EAA1BBB1BFD01C7
:100DE0000DC0AA1FBB1FEE1FFF1FA217B307E4070A
:100DF000F50720F0A21BB30BE40BF50B661F771F62
:100E0000881F991F1A9469F7609570958095909541
:100E10009B01AC01BD01CF010895EE0FFF1F00241F
:100E2000001C0BBE0790F691E02D0994F894FFCFBB
:100E30000000000200000000A70100000000010007
:100E4000000001436F6E67726174756C6174696F45
:040E50006E730000BD
:00000001FF
