:100000000C9446000C9465000C9465000C946500FB
:100010000C9465000C9465000C9465000C946500CC
:100020000C9465000C9465000C9465000C946500BC
:100030000C9465000C9407020C9465000C94650008
:100040000C9465000C9465000C9465000C9465009C
:100050000C9465000C9465000C9465000C9465008C
:100060000C9465000C9465000C9465000C9465007C
:100070000C9465000C9465000C9465000C9465006C
:100080000C9465000C9465000C94650011241FBE4F
:10009000CFEFD0E4DEBFCDBF11E0A0E0B1E0E2EBF6
:1000A000F8E000E00BBF02C007900D92A635B10743
:1000B000D9F721E0A6E5B1E001C01D92A736B2074D
:1000C000E1F70E9400030C9457040C940000CF93B6
:1000D000DF93CDB7DEB781E00E948E000000DF9194
:1000E000CF910895CF93DF93CDB7DEB784E690E04C
:1000F0000E94320188E30E948E0086E00E948E00FA
:100100008FE00E948E0081E00E948E008AE090E0E5
:100110000E9432010000DF91CF910895CF93DF93C9
:100120001F92CDB7DEB789838BE290E02BE230E0FF
:10013000F90120812F7BFC01208385E290E0298159
:10014000FC0120838BE290E02BE230E0F90120817A
:100150002068FC01208300008BE290E02BE230E07D
:10016000F90120812F77FC01208382E090E00E943A
:10017000320100000F90DF91CF910895CF93DF936C
:100180001F92CDB7DEB789838BE290E02BE230E09F
:10019000F90120812064FC01208385E290E029811F
:1001A000FC0120838BE290E02BE230E0F90120811A
:1001B0002068FC01208300008BE290E02BE230E01D
:1001C000F90120812F77FC01208381E090E00E94DB
:1001D000320100000F90DF91CF910895CF93DF930C
:1001E00000D000D0CDB7DEB78A837C836B830E94BA
:1001F00067008A81898311C0898191E0980F998372
:100200000E941B018B819C819C012F5F3F4F3C838F
:100210002B83FC0180810E94BE008B819C81FC01AC
:100220008081882349F700000F900F900F900F9066
:10023000DF91CF910895CF93DF931F92CDB7DEB7B3
:1002400089838981813128F4898181580E948E00B7
:1002500004C0898181550E948E0000000F90DF91BB
:10026000CF910895CF93DF9300D000D000D0CDB7C9
:10027000DEB79E838D831A82198213C01C821B8273
:1002800006C000008B819C8101969C838B838B81AF
:100290009C8187309340ACF389819A8101969A833F
:1002A000898329813A818D819E812817390734F30A
:1002B000000026960FB6F894DEBF0FBECDBFDF91CB
:1002C000CF910895CF93DF9300D01F92CDB7DEB7C3
:1002D00089837B836A8389818A3031F48A819B8117
:1002E000BC018DE00E94620180EC90E0FC01808105
:1002F000882F90E080729927892BB1F386EC90E0EB
:100300002981FC01208380E090E00F900F900F90F6
:10031000DF91CF910895CF93DF9300D000D0CDB778
:10032000DEB769837A838B839C8389819A81AB81D1
:10033000BC8180930E0190930F01A0931001B093A4
:10034000110180910E0190910F01A0911001B091C7
:1003500011018093570190935801A0935901B093D4
:100360005A0100000F900F900F900F90DF91CF91E6
:100370000895CF93DF93CDB7DEB781E890E02BE00F
:10038000FC01208388E890E02DE730E0FC01318318
:1003900020838FE690E022E0FC01208384E890E057
:1003A000FC011182108280910E0190910F01A091A9
:1003B0001001B09111018093570190935801A093BF
:1003C0005901B0935A018FE590E02FE530E0F90133
:1003D00020812068FC0120830000DF91CF910895E7
:1003E000CF93DF93CDB7DEB781E890E0FC011082B8
:1003F0000000DF91CF910895CF93DF93CDB7DEB7A3
:1004000081E0809356010000DF91CF9108951F9203
:100410000F9200905F000F92112400905B000F92EA
:100420002F933F934F935F936F937F938F939F93FC
:10043000AF93BF93EF93FF93CF93DF93CDB7DEB727
:100440008091570190915801A0915901B0915A01A2
:100450000197A109B1098093570190935801A09386
:100460005901B0935A018091570190915801A09180
:100470005901B0915A01892B8A2B8B2B91F40E9440
:10048000FC0180910E0190910F01A0911001B0919B
:1004900011018093570190935801A0935901B09393
:1004A0005A010000DF91CF91FF91EF91BF91AF9181
:1004B0009F918F917F916F915F914F913F912F917C
:1004C0000F9000925B000F9000925F000F901F90C2
:1004D0001895CF93DF93CDB7DEB72C970FB6F8946E
:1004E000DEBF0FBECDBF6D837E838F839887298744
:1004F0003A874B875C878D819E81AF81B88529853E
:100500003A854B855C85BC01CD010E943504DC0138
:10051000CB0189839A83AB83BC8389819A81AB8128
:10052000BC81892B8A2B8B2B29F489859A85AB85F5
:10053000BC8511C089859A85AB85BC858D839E83DA
:10054000AF83B88789819A81AB81BC8189879A877B
:10055000AB87BC87D0CFBC01CD012C960FB6F894E9
:10056000DEBF0FBECDBFDF91CF910895CF93DF9354
:1005700000D000D0CDB7DEB79C838B838B819C816C
:10058000892BA9F581E090E09A83898327C089812E
:100590000E941B0180911201282F30E089819A81ED
:1005A000820F931F02978D5E9E4FFC018081882FE2
:1005B00090E00E94BE0080911201282F30E08981D6
:1005C0009A81820F931F8434910519F481E08093FE
:1005D000120189819A8101969A83898389819A81FE
:1005E0004197ACF2809112018F5F809312018B8151
:1005F0009C810F900F900F900F90DF91CF910895F5
:100600000F931F93CF93DF93CDB7DEB766970FB6E7
:10061000F894DEBF0FBECDBF81E290E02FEFFC016A
:10062000208382E290E0FC01108284E290E02FEFD0
:10063000FC01208385E290E0FC01108287E290E0DB
:1006400020EFFC01208388E290E02FE0FC01208372
:100650008AE290E02FEFFC0120838BE290E0FC0126
:1006600010828CE291E0A0E0B0E08B839C83AD83AC
:10067000BE8381E090E0A0E0B0E08F839887A987F7
:10068000BA878F819885A985BA858B879C87AD8726
:10069000BE878B819C81AD81BE818F87988BA98B12
:1006A000BA8B8CE591E09E8B8D8B81E090E09C8BEA
:1006B0008B8B10925C018F859889A989BA89809368
:1006C0005D0190935E01A0935F01B09360018F85FF
:1006D0009889A989BA898093610190936201A09356
:1006E0006301B093640186EB92E09093660180937E
:1006F00065018B859C85AD85BE85BC01CD010E94C1
:100700008B010E94B9010E9472000E9467001A8248
:1007100019829BC089819A81880F991F9E012F5F42
:100720003F4F820F931F4496FC0180819181FC0111
:10073000258136814781508589819A81880F991F4B
:10074000BE016F5F7F4F860F971F4496FC0180812B
:100750009181FC0181819281A381B481281739079D
:100760004A075B0708F445C089819A81880F991F61
:100770009E012F5F3F4F820F931F4496FC01008123
:10078000118189819A81880F991F9E012F5F3F4FA8
:10079000820F931F4496FC0180819181FC01218589
:1007A000328589819A81880F991FAE014F5F5F4F13
:1007B000840F951F4496FC0180819181FC0180810A
:1007C000082E000C990BF9010995F80180838981A5
:1007D0009A81880F991F9E012F5F3F4F820F931FB1
:1007E0004496FC0180819181FC011582168217825A
:1007F000108689819A81880F991F9E012F5F3F4F34
:10080000820F931F4496FC012081318189819A8156
:10081000880F991FAE014F5F5F4F840F951F44965D
:10082000FC0180819181FC0185819681A781B08541
:100830000196A11DB11DF90185839683A783B08719
:1008400089819A8101969A83898329813A818B894A
:100850009C892817390708F45DCF00008091560164
:100860008823E1F31092560152CFA1E21A2EAA1B5F
:10087000BB1BFD010DC0AA1FBB1FEE1FFF1FA21750
:10088000B307E407F50720F0A21BB30BE40BF50B4D
:10089000661F771F881F991F1A9469F760957095D6
:1008A000809590959B01AC01BD01CF010895F8940E
:0208B000FFCF78
:1008B20000000002000000006201000000000100D0
:1008C2000000012020202020202020202020202085
:1008D2002020435331323042206973204C656765D2
:1008E2006E642E2E2E7761697420666F7220697491
:1008F2002044415259212020202020202020202045
:060902002020202020202F
:00000001FF
