:100000000C9446000C9465000C9465000C946500FB
:100010000C9465000C9465000C9465000C946500CC
:100020000C9465000C9465000C9465000C946500BC
:100030000C9465000C9407020C9465000C94650008
:100040000C9465000C9465000C9465000C9465009C
:100050000C9465000C9465000C9465000C9465008C
:100060000C9465000C9465000C9465000C9465007C
:100070000C9465000C9465000C9465000C9465006C
:100080000C9465000C9465000C94650011241FBE4F
:10009000CFEFD0E4DEBFCDBF11E0A0E0B1E0E6E8F5
:1000A000FBE000E00BBF02C007900D92A231B10748
:1000B000D9F721E0A2E1B1E001C01D92AF32B20751
:1000C000E1F70E943E040C94C1050C940000CF930C
:1000D000DF93CDB7DEB781E00E948E000000DF9194
:1000E000CF910895CF93DF93CDB7DEB784E690E04C
:1000F0000E94320188E30E948E0086E00E948E00FA
:100100008FE00E948E0081E00E948E008AE090E0E5
:100110000E9432010000DF91CF910895CF93DF93C9
:100120001F92CDB7DEB789838BE290E02BE230E0FF
:10013000F90120812F7BFC01208385E290E0298159
:10014000FC0120838BE290E02BE230E0F90120817A
:100150002068FC01208300008BE290E02BE230E07D
:10016000F90120812F77FC01208382E090E00E943A
:10017000320100000F90DF91CF910895CF93DF936C
:100180001F92CDB7DEB789838BE290E02BE230E09F
:10019000F90120812064FC01208385E290E029811F
:1001A000FC0120838BE290E02BE230E0F90120811A
:1001B0002068FC01208300008BE290E02BE230E01D
:1001C000F90120812F77FC01208381E090E00E94DB
:1001D000320100000F90DF91CF910895CF93DF930C
:1001E00000D000D0CDB7DEB78A837C836B830E94BA
:1001F00067008A81898311C0898191E0980F998372
:100200000E941B018B819C819C012F5F3F4F3C838F
:100210002B83FC0180810E94BE008B819C81FC01AC
:100220008081882349F700000F900F900F900F9066
:10023000DF91CF910895CF93DF931F92CDB7DEB7B3
:1002400089838981813128F4898181580E948E00B7
:1002500004C0898181550E948E0000000F90DF91BB
:10026000CF910895CF93DF9300D000D000D0CDB7C9
:10027000DEB79E838D831A82198213C01C821B8273
:1002800006C000008B819C8101969C838B838B81AF
:100290009C8187309340ACF389819A8101969A833F
:1002A000898329813A818D819E812817390734F30A
:1002B000000026960FB6F894DEBF0FBECDBFDF91CB
:1002C000CF910895CF93DF9300D01F92CDB7DEB7C3
:1002D00089837B836A8389818A3031F48A819B8117
:1002E000BC018DE00E94620180EC90E0FC01808105
:1002F000882F90E080729927892BB1F386EC90E0EB
:100300002981FC01208380E090E00F900F900F90F6
:10031000DF91CF910895CF93DF9300D000D0CDB778
:10032000DEB769837A838B839C8389819A81AB81D1
:10033000BC8180930E0190930F01A0931001B093A4
:10034000110180910E0190910F01A0911001B091C7
:1003500011018093130190931401A0931501B093A0
:10036000160100000F900F900F900F90DF91CF912A
:100370000895CF93DF93CDB7DEB781E890E02BE00F
:10038000FC01208388E890E02DE730E0FC01318318
:1003900020838FE690E022E0FC01208384E890E057
:1003A000FC011182108280910E0190910F01A091A9
:1003B0001001B09111018093130190931401A09347
:1003C0001501B09316018FE590E02FE530E0F901BB
:1003D00020812068FC0120830000DF91CF910895E7
:1003E000CF93DF93CDB7DEB781E890E0FC011082B8
:1003F0000000DF91CF910895CF93DF93CDB7DEB7A3
:1004000081E0809312010000DF91CF9108951F9247
:100410000F9200905F000F92112400905B000F92EA
:100420002F933F934F935F936F937F938F939F93FC
:10043000AF93BF93EF93FF93CF93DF93CDB7DEB727
:100440008091130190911401A0911501B0911601B2
:100450000197A109B1098093130190931401A0930E
:100460001501B09316018091130190911401A09190
:100470001501B0911601892B8A2B8B2B91F40E94C8
:10048000FC0180910E0190910F01A0911001B0919B
:1004900011018093130190931401A0931501B0935F
:1004A00016010000DF91CF91FF91EF91BF91AF91C5
:1004B0009F918F917F916F915F914F913F912F917C
:1004C0000F9000925B000F9000925F000F901F90C2
:1004D0001895CF93DF93CDB7DEB72C970FB6F8946E
:1004E000DEBF0FBECDBF6D837E838F839887298744
:1004F0003A874B875C878D819E81AF81B88529853E
:100500003A854B855C85BC01CD010E949F05DC01CD
:10051000CB0189839A83AB83BC8389819A81AB8128
:10052000BC81892B8A2B8B2B29F489859A85AB85F5
:10053000BC8511C089859A85AB85BC858D839E83DA
:10054000AF83B88789819A81AB81BC8189879A877B
:10055000AB87BC87D0CFBC01CD012C960FB6F894E9
:10056000DEBF0FBECDBFDF91CF910895CF93DF9354
:1005700000D01F92CDB7DEB789836A834B838B810E
:10058000882371F08A81282F30E081E090E002C05A
:10059000880F991F2A95E2F7982F8981892B0EC021
:1005A0008A81282F30E081E090E002C0880F991FF7
:1005B0002A95E2F7982F9095898189230F900F90C3
:1005C0000F90DF91CF910895CF93DF9300D0CDB7F7
:1005D000DEB789836A838A81282F30E081E090E04A
:1005E00002C0880F991F2A95E2F7982F89818923E5
:1005F0000F900F90DF91CF9108950F931F93CF939A
:10060000DF93CDB7DEB708E210E040E064E08FEFA3
:100610000E94B602F8018083000086E290E0FC01AF
:100620008081809560E00E94E402882311F081E3DC
:10063000D3C086E290E0FC018081809561E00E9459
:10064000E402882311F084E3C7C086E290E0FC0155
:100650008081809562E00E94E402882311F087E3A4
:10066000BBC086E290E0FC018081809563E00E943F
:10067000E402882311F08AE2AFC008E210E040E013
:1006800065E08FEF0E94B602F8018083000086E2E9
:1006900090E0FC018081809560E00E94E402882364
:1006A00011F082E399C086E290E0FC0180818095A0
:1006B00061E00E94E402882311F085E38DC086E2A8
:1006C00090E0FC018081809562E00E94E402882332
:1006D00011F088E381C086E290E0FC018081809582
:1006E00063E00E94E402882311F080E375C008E211
:1006F00010E040E066E08FEF0E94B602F8018083D0
:10070000000086E290E0FC018081809560E00E941C
:10071000E402882311F083E35FC086E290E0FC01ED
:100720008081809561E00E94E402882311F086E3D5
:1007300053C086E290E0FC018081809562E00E94D7
:10074000E402882311F089E347C086E290E0FC01CF
:100750008081809563E00E94E402882311F083E2A7
:100760003BC008E210E040E067E08FEF0E94B60275
:10077000F8018083000086E290E0FC018081809592
:1007800060E00E94E402882311F081E425C086E243
:1007900090E0FC018081809561E00E94E402882362
:1007A00011F082E419C086E290E0FC01808180951E
:1007B00062E00E94E402882311F083E40DC086E227
:1007C00090E0FC018081809563E00E94E402882330
:1007D00011F084E401C080E0DF91CF911F910F916F
:1007E0000895CF93DF9300D0CDB7DEB79A83898386
:1007F00089819A81892B19F41A82198200008981D2
:100800009A81892B29F40E94FD0280932D0100001A
:1008100089819A810F900F90DF91CF910895CF93A6
:10082000DF9300D0CDB7DEB79A83898389819A811F
:10083000892B11F41A82198289819A81892BB9F442
:1008400090912E0180912D01981789F080912D01B2
:10085000882369F081E00E941B0180912D01882F7F
:1008600090E00E94BE0080912D0180932E0189812D
:100870009A810F900F90DF91CF9108950F931F935E
:10088000CF93DF93CDB7DEB768970FB6F894DEBF8E
:100890000FBECDBF81E290E02FEFFC01208382E20A
:1008A00090E0FC01108284E290E02FEFFC012083B5
:1008B00085E290E0FC01108287E290E020EFFC01ED
:1008C000208388E290E02FE0FC0120838AE290E020
:1008D0002FEFFC0120838BE290E0FC0110820E944C
:1008E000720082E390E0A0E0B0E08B839C83AD8354
:1008F000BE8381E090E0A0E0B0E08F839887A98775
:10090000BA878F819885A985BA858B879C87AD87A3
:10091000BE878B819C81AD81BE812B853C854D85B9
:100920005E85BC01CD010E949F05DA01C9018F8758
:10093000988BA98BBA8B87E191E09E8B8D8B82E29D
:1009400091E0988F8F8B82E090E09C8B8B8B109244
:1009500017018F859889A989BA8980931801909386
:100960001901A0931A01B0931B018F859889A98959
:10097000BA8980931C0190931D01A0931E01B0932E
:100980001F0181EF93E09093210180932001109249
:1009900022018F859889A989BA8980932301909330
:1009A0002401A0932501B09326018F859889A989F8
:1009B000BA898093270190932801A0932901B093CD
:1009C0002A018FE094E090932C0180932B018B857A
:1009D0009C85AD85BE85BC01CD010E948B010E9426
:1009E000B9011A8219829BC089819A81880F991F47
:1009F0009E012F5F3F4F820F931F4496FC01808121
:100A00009181FC01258136814781508589819A81B8
:100A1000880F991FBE016F5F7F4F860F971F449607
:100A2000FC0180819181FC0181819281A381B4814B
:100A3000281739074A075B0709F045C089819A8161
:100A4000880F991F9E012F5F3F4F820F931F44967F
:100A5000FC010081118189819A81880F991F9E0173
:100A60002F5F3F4F820F931F4496FC01808191813D
:100A7000FC012185328589819A81880F991FAE01F9
:100A80004F5F5F4F840F951F4496FC0180819181D9
:100A9000FC018081082E000C990BF9010995F801E1
:100AA000808389819A81880F991F9E012F5F3F4F14
:100AB000820F931F4496FC0180819181FC01158275
:100AC00016821782108689819A81880F991F9E014C
:100AD0002F5F3F4F820F931F4496FC01208131818D
:100AE00089819A81880F991FAE014F5F5F4F840FF4
:100AF000951F4496FC0180819181FC01858196813E
:100B0000A781B0850196A11DB11DF901858396834A
:100B1000A783B08789819A8101969A8389832981E5
:100B20003A818B899C892817390708F45DCF00002A
:100B3000809112018823E1F31092120152CFA1E2B9
:100B40001A2EAA1BBB1BFD010DC0AA1FBB1FEE1F47
:100B5000FF1FA217B307E407F50720F0A21BB30B92
:100B6000E40BF50B661F771F881F991F1A9469F70E
:100B700060957095809590959B01AC01BD01CF016A
:060B80000895F894FFCF78
:100B860000000002000000006201000000000100F9
:020B960000005D
:00000001FF
